:020000040800F2
:1000000010070020290200087B150008A51400082D
:1000100079150008D7040008231900080000000023
:10002000000000000000000000000000A916000809
:10003000D9040008000000007D150008AB16000878
:10004000430200084302000843020008430200087C
:10005000430200084302000843020008430200086C
:10006000430200084302000843020008430200085C
:10007000430200084302000843020008430200084C
:10008000430200084302000843020008430200083C
:10009000430200084302000843020008430200082C
:1000A000430200084302000843020008430200081C
:1000B000430200084302000843020008430200080C
:1000C00043020008430200084302000843020008FC
:1000D00043020008430200084302000843020008EC
:1000E00043020008430200084302000843020008DC
:1000F00043020008430200084302000843020008CC
:1001000043020008430200084302000843020008BB
:1001100043020008430200084302000843020008AB
:10012000430200084302000843020008430200089B
:10013000430200084302000843020008430200088B
:10014000430200084302000843020008430200087B
:10015000430200084302000843020008430200086B
:10016000430200084302000843020008430200085B
:100170004302000843020008430200080000000098
:10018000430200084302000800F002F800F03CF8C7
:100190000AA090E8000C82448344AAF10107DA45E2
:1001A00001D100F031F8AFF2090EBAE80F0013F0F8
:1001B000010F18BFFB1A43F001031847A81A0000EB
:1001C000C81A0000103A24BF78C878C1FAD852077C
:1001D00024BF30C830C144BF04680C6070470000C1
:1001E0000023002400250026103A28BF78C1FBD840
:1001F000520728BF30C148BF0B6070471FB501F0E0
:100200001FFD1FBD10B510BD00F02BF91146FFF703
:10021000F5FF01F097FB00F049F903B4FFF7F2FF97
:1002200003BC00F051F90000094880470948004725
:10023000FEE7FEE7FEE7FEE7FEE7FEE7FEE7FEE796
:10024000FEE7FEE704480549054A064B70470000F3
:100250004517000889010008100100201007002040
:10026000100300201003002053EA020C00F0698004
:100270002DE9F04B4FF00006002B1FBFB3FA83F5BA
:1002800003FA05F424FA05F65E4012BF1643B2FAEB
:1002900082F502FA05F4C5F120051EBF22FA05FC1D
:1002A00044EA0C04203556EA044C4FEA144418BFC3
:1002B000641C4FF000084FF00009904271EB030CF2
:1002C00039D3002919BFB1FA81F701FA07F6B0FA5C
:1002D00080F700FA07F6C7F120071EBF20FA07FCD7
:1002E00046EA0C062037B6FBF4FCA7EB0507103FE7
:1002F00007F01F0BCBF120060CFA0BFB2CFA06F6CD
:1003000044BFB3460026202FA4BF5E464FF0000B2B
:100310005BEA060C08BF4FF0010B19EB0B09ABFBB6
:10032000027C48EB0608C01B06FB02CC0BFB03CC8F
:1003300071EB0C01C1E70B46024641464846BDE859
:10034000F08B13B54FF000004FF00001AFF30080C9
:10035000BDE81C40704710B5203AC0F00B80B1E8F2
:100360001850203AA0E81850B1E81850A0E81850EA
:10037000BFF4F5AF5FEA027C24BFB1E81850A0E8F3
:10038000185044BF18C918C0BDE810405FEA827C0D
:1003900024BF51F8043B40F8043B08BF7047D20724
:1003A00028BF31F8023B48BF11F8012B28BF20F8C5
:1003B000023B48BF00F8012B704702F0FF0343EAFD
:1003C000032242EA024200F02CB84FF0000200B5CE
:1003D000134694469646203922BFA0E80C50A0E868
:1003E0000C50B1F12001BFF4F7AF090728BFA0E816
:1003F0000C5048BF0CC05DF804EB890028BF40F8E2
:10040000042B08BF704748BF20F8022B11F0804F23
:1004100018BF00F8012B70477047704770474FF0C6
:1004200000020429C0F0128010F0030C3FF4CFAF9B
:10043000CCF1040CBCF1020F18BF00F8012BA8BFCF
:1004400020F8022BA1EB0C01FFF7C1BF5FEAC17CD2
:1004500024BF00F8012B00F8012B48BF00F8012B46
:100460007047754600F02CF8AE46050069465346C5
:1004700020F00700854618B020B5FFF7E3FEBDE881
:1004800020404FF000064FF000074FF000084FF0FB
:10049000000B21F00701AC46ACE8C009ACE8C0098C
:1004A000ACE8C009ACE8C0098D46704710B50446F9
:1004B000AFF300802046BDE81040FFF7AEBE00005D
:1004C00000487047B000002001491820ABBEFEE78D
:1004D000260002007047FEE7704772B6FEE7000094
:1004E000B0F9042000EE102AF8EEC00A9FED260AAB
:1004F00060EE800AC1ED000AB0F9062000EE902AF5
:10050000F8EEE00A60EE800AC1ED010AB0F90820B9
:1005100000EE902AF8EEE00A20EE800A81ED020A51
:10052000B0F90A2000EE102AF8EEC00A9FED170A73
:1005300060EE800AC1ED030AB0F90C2000EE902AAB
:10054000F8EEE00A60EE800AC1ED040AB0F90E2070
:1005500000EE902AF8EEE00A20EE800ADFED0C0AA9
:1005600081ED050A02698A614269CA6182690A628B
:10057000B0F91C0000EE100AB8EEC00A20EE200A06
:1005800081ED090A704700000000003A90C1793DF2
:100590000AD7233CF0B589B00446FF22202101A8E8
:1005A000FFF70BFF214F00221021384600F0ECF935
:1005B0000026009600BF0098401C00906428F9DBDC
:1005C000642000902023224601A9194800F0A8FDCC
:1005D0000546009600BF0098401C00906428F9DB97
:1005E00001221021384600F0CFF9CDB92078AA2891
:1005F00016D16078552813D1E07F5A2810D1A07801
:1006000002280DD1E0781E280AD100210220225CA8
:10061000401C1144C9B21D28F9DDA07F884202D0D8
:10062000002009B0F0BD0120FBE7000000000240FF
:100630001000002070B505462DED028BB0EE408A0B
:10064000B5EEC08AF1EE10FA04D21FA000F066F8F1
:10065000B1EE488AB6EE000A0020F2EE048A04E009
:10066000C0EE280A401CB0EE600AA842F8DB38EE63
:10067000008ABCEEC80A10EE104A204600F05EF870
:10068000002D1DDD11A000F049F800EE104A0026F3
:10069000B8EE400A38EE400A10E000BF20EE288A8B
:1006A000BCEEC80A10EE104A204600F047F800EEF3
:1006B000104A761CB8EE400A38EE400AAE42EDDB36
:1006C000BDEC028B70BD00002D0000002E0000006C
:1006D00010B586B0044614220BA16846FFF73BFE16
:1006E000684600EB141109788DF8141004F00F011E
:1006F0001DF801008DF8150000208DF8160005A8E2
:1007000000F00CF806B010BD3031323334353637D6
:1007100038394142434445460000000010B50446C4
:1007200006E00A2301222146034800F06BFE641C08
:1007300020780028F5D110BD680000203EB50B21BF
:1007400000236A468DF80B3078B10A23B0FBF3F42E
:1007500003FB1404B0FBF3F0491E3034545400285A
:10076000F4D15018FFF7DAFF3EBD01A0FAE7000010
:100770003000000070B5044600F00CF90546601C1E
:1007800002D004480078044400F004F9401BA04261
:10079000FAD370BD000000202DE9F84FDFF8BCA1AE
:1007A0000022012503264FF00F090AF1040BAAF1DC
:1007B000040E00BF0B6805FA02F42340A34270D177
:1007C0000F7907F00307012F01D0022F16D1876898
:1007D0004FEA420806FA08FC27EA0C07D1F80CC0D9
:1007E0000CFA08FC4CEA070CC0F808C04768A7439D
:1007F0000C79C4F3001494403C4344600C79E44306
:10080000A4070AD0C4684FEA420C06FA0CF7BC43AE
:100810008F6807FA0CF72743C7600C7904F00304CC
:10082000022C12D1D40800EB840CDCF820405707CE
:10083000FF0E09FA07F824EA0804D1F8108008FA34
:1008400007F848EA0408CCF8208004684FEA420C14
:1008500006FA0CF7BC430F7907F0030707FA0CF709
:10086000274307604C6814F4403F70D03C4C276825
:1008700047F480472760246822F0030704F480448B
:100880000094384C07EB040CDCF8084897074FEA53
:10089000177809FA08F7BC43334FB84202D1002752
:1008A00024E054E0314FB84201D101271EE0304F1F
:1008B000B84201D1022719E02E4FB84201D10327D7
:1008C00014E02D4FB84201D104270FE02B4FB8425E
:1008D00001D105270AE02A4FB84201D1062705E0D9
:1008E000284FB84201D1072700E0082707FA08F788
:1008F0002743CCF80878DAF800405746D1F804C00E
:100900009C435FEACC2C00D51C433C60DBF80040E4
:100910005F46D1F804C09C435FEA8C2C00D51C4391
:100920003C60DEF800407746D1F804C09C435FEAA3
:100930008C3C00D51C433C60084F083F3C68D1F814
:1009400004C09C435FEACC3C00D51C433C60521C75
:10095000102AFFF42FAFBDE8F88F0000083C0140DB
:1009600044380240003001400000024000040240D0
:1009700000080240000C0240001002400014024037
:1009800000180240001C02400AB18161704709044E
:10099000FBE700000148806870470000000000206D
:1009A000024881680278114481607047000000208D
:1009B0000B4810B5016841F400710160016841F411
:1009C00080610160016841F480710160032000F0E2
:1009D00061F80F2000F006F800F024F8002010BDA8
:1009E000003C024070B50D4D04464FF47A712878F2
:1009F000B1FBF0F00A490968B1FBF0F000F088FCA7
:100A000048B9102C07D200222146501E00F022F8CF
:100A100000206C6070BD012070BD0000000000204F
:100A20000C0000200A4808B5016841F480410160CB
:100A3000006800F4804000900548001F016841F004
:100A400080510160006800F08050009008BD0000F7
:100A500044380240F0B40E4B1B680C46C3F302232B
:100A6000C3F10705042D00D90425191D072901D25A
:100A7000002300E0DB1E012606FA05F1491E214095
:100A800099409E40761E16403143F0BC00F04ABFAC
:100A90000CED00E0064900F0070208684FF6FF037E
:100AA000184040EA0220034A1043086070470000E3
:100AB0000CED00E00000FA052DE9F0470E460500B8
:100AC00065D0DFF81481D8F80000F7B200F0070015
:100AD000B04207D288F80070D8F8000000F0070094
:100AE000B04254D128683D4C810712D5400703D548
:100AF000206840F4E05020602878000703D5206883
:100B000040F4604020602068A96820F0F0000843AD
:100B100020602878C0072DD030496868083901283E
:100B200012D0022813D0032811D0096889070029A0
:100B30002DDA216821F0030101432160FFF72AFF2C
:100B4000814641F2883A0EE009688903EFE70968B7
:100B50008901ECE7FFF71EFFA0EB0901514502D91F
:100B60000320BDE8F0872068696800F00C00B0EB56
:100B7000810FEFD1D8F80010404601F00701B142D3
:100B800007D90770006800F00700B04201D00120CB
:100B9000E7E72878400705D52068E96820F4E050A9
:100BA000084320602878000706D52068296920F4CA
:100BB000604040EAC100206000F038F82168084A2F
:100BC000C1F30311515CC84006490860064800683B
:100BD000FFF708FF0020C4E7003C0240083802404D
:100BE0004A1C00080C0000200400002004480549AD
:100BF00000680968044AC1F38221515CC84070470B
:100C00000C000020083802405A1C0008044805491E
:100C100000680968044AC1F34231515CC84070471A
:100C20000C000020083802405A1C0008154810B576
:100C3000006810F00C02144813D01449042A0FD095
:100C4000082A0ED10F4C241F2268236802F03F02AD
:100C50005B0207D52068C0F38810A0FB010106E005
:100C6000084610BD2168C1F38811A1FB00010023D3
:100C7000FFF7FAFA2168C1F30141491C4900B0FBB2
:100C8000F1F010BD083802400024F40040787D01E6
:100C90002DE9F84F04006ED02078DFF84C93C007A0
:100CA000A9F104054AD009F104000168C1F38101EA
:100CB000012908D00068C0F3810002280AD1D9F8C0
:100CC0000000400206D52868800337D560680028F8
:100CD000E1D033E06068B0F5803F10D0B0F5A02FD0
:100CE000286810D020F480302860286820F4802004
:100CF00028606068A8B1FFF74DFE06460DE0286841
:100D000040F48030F4E740F480202860F7E700BF2B
:100D1000FFF740FE801B642873D828688003F7D54E
:100D20000CE0FFF737FE064605E000BFFFF732FE96
:100D3000801B6428F0D828688003F7D42078DFF877
:100D4000AC8280074FF0000A3ED5A748001D01681D
:100D500011F00C0F08D00068C0F3810002280BD1FD
:100D6000D9F80000400207D42868800716D5E0684B
:100D7000012800D112E033E1E068B8B10120C8F8E1
:100D80000000FFF707FE064605E000BFFFF702FE82
:100D9000801B0228C0D828688007F7D528682169F9
:100DA00020F0F80040EAC10028600DE0C8F800A07B
:100DB000FFF7F0FD064604E0FFF7ECFD801B02287C
:100DC0001FD828688007F7D42078000722D5864FDF
:100DD00087486169703771B101210160FFF7DAFD61
:100DE000064604E0FFF7D6FD801B022809D83868C4
:100DF0008007F7D50EE0C0F800A0FFF7CBFD064650
:100E000005E082E0FFF7C6FD801B02287DD8386828
:100E10008007F7D42078400768D5DFF8CCB10027E9
:100E20000BF13C0BDBF80000C0000BD4DBF800102A
:100E300041F08051CBF80010DBF80000012700F0F2
:100E4000805000906B4E3068C00510D4306840F47C
:100E500080703060FFF79EFD009005E0FFF79AFD7F
:100E60000099401A022850D83068C005F6D55E4E69
:100E7000A0686C3601280FD00528306810D020F00B
:100E800001003060306820F004003060A068B8B124
:100E9000FFF780FD00900FE0306840F00100F4E7BC
:100EA00040F004003060F7E7FFF774FD0099411A45
:100EB00041F28830814266D830688007F4D50EE070
:100EC000FFF768FD009007E0FFF764FD0099411A05
:100ED00041F28830814256D830688007F4D42FB16F
:100EE000DBF8001021F08051CBF80010A069C8B3E6
:100EF0003D49091D0968C1F3810102294AD0022830
:100F0000504607D0C8F8600000E03CE0FFF742FD23
:100F100004463BE04746C8F86000FFF73BFD064645
:100F200005E000BFFFF736FD801B02282BD828689C
:100F30008001F7D4D4E907010843A16A2E4A490881
:100F400002EB0141626A41EA8211084394F82C10D5
:100F500040EA0161C9F8001001203866FFF71AFD68
:100F6000044606E03EE000BFFFF714FD001B022828
:100F700009D828688001F7D534E000BFFFF70AFDE3
:100F8000001B022802D90320BDE8F88F28688001E1
:100F9000F4D427E00128F7D0D9F80000E26900F482
:100FA000800191421CD1226A00F03F01914217D189
:100FB00047F6C071626A0140B1EB821F10D1A26A8C
:100FC0004FF0FF3300F4403103EB5202B1EB024F1C
:100FD00006D194F82C1000F07060B0EB016F01D0D6
:100FE0000120D1E70020CFE704380240000047424B
:100FF000800E4742007000400000FFFF70B5040003
:1010000009D0606A002540B125616561A56294F848
:10101000510040B10CE0012070BD6068B0F5827FE6
:10102000F4D0E561F2E784F85050204600F044F82F
:10103000022084F851002068016821F0400101601D
:10104000A088218900F4827001F404410843A18939
:1010500001F400610843217C01F002010843217D75
:1010600001F001010843218B01F400710843217F45
:1010700001F03801084394F8201001F08001084382
:10108000218D01F40051084321680860A069042102
:1010900001EA104094F8241001F01001084321687F
:1010A00048602068C16921F40061C1616565012063
:1010B00084F85100002070BD10B586B0044614219C
:1010C0006846FFF782F913492068884220D1124808
:1010D0000021026842F001020260006800F0010095
:1010E00005900D481430026842F480520260006896
:1010F00000F480500590E02000900220CDE901012D
:10110000032003900520049069460448FFF744FB40
:1011100006B010BD003001403038024000000240EF
:101120002DE9FF4F81B01D46934604464FF001095B
:101130000E9EFFF72FFC074694F8510061680128C6
:1011400006D0B1F5827F3CD1A168C9BB042838D153
:101150000298002871D0BBF1000FFBD0002DF9D010
:1011600094F8500001282CD04FF0010A84F850A0C8
:1011700094F85100042802D0052084F851004FF063
:101180000008C4F85480C4F838B0E587A5870299F0
:101190002163E586A586C4F84080C4F844802068B1
:1011A0000168490603D4016841F040010160E0682C
:1011B000B0F5006F606808D0F0B3012D49D081E030
:1011C000FFE7022005B0BDE8F08F08B1012D39D14D
:1011D000206B21680088C860206B801C2063E08E33
:1011E000401EE0862EE02068816889070FD5E18ED9
:1011F00069B1B9F1010F0AD1216B0988C160206B77
:10120000801C2063E08E401EE0864FF000092068BD
:101210008168C9070CD0E18F51B1C068A16B08800B
:10122000A06B801CA063E08F401EE0874FF0010997
:10123000FFF7B0FBC01B01E00BE067E0B04201D359
:10124000701C50D1E08E0028CDD1E08F0028CAD18B
:101250003EE0206B216800780873206B401C2063FF
:10126000E08E401EE0862DE02068816889070FD55A
:10127000E18E69B1B9F1010F0AD1216B09780173CF
:10128000206B401C2063E08E401EE0864FF000097A
:1012900020688168C9070CD0E18F51B1C068A16B8B
:1012A0000870A06B401CA063E08F401EE0874FF0E9
:1012B0000109FFF76FFBC01BB04202D3701C01D0C5
:1012C00011E086B1E08E0028CED1E08F0028CBD18E
:1012D0003A463146204600F053F950B1202060656F
:1012E00084F8508012E084F851A084F850800320E4
:1012F00068E7A06818B92068C1688068009084F821
:1013000051A084F85080606D0028F1D0012059E789
:1013100010B5401EB0F1807F01D3012010BD4FF009
:10132000E02460610F21601700F0FCFA0020A0614A
:1013300007202061002010BD70B5040004D094F88F
:101340004100002510B106E0012070BD84F8405036
:10135000204600F023F8242084F841002068C1686A
:1013600021F40051C160204600F01CFA2068016998
:1013700021F4904101612068416921F02A01416115
:101380002068C16841F40051C1606564202084F880
:10139000410084F842006563002070BD10B586B03E
:1013A000044614216846FFF710F813492068884264
:1013B00020D112480021026842F001020260006858
:1013C00000F0010005900D481430026842F0100250
:1013D0000260006800F0100005904FF4C0600090BB
:1013E0000220CDE9010103900720049069460448DA
:1013F000FFF7D2F906B010BD0010014030380240AE
:10140000000002402DE9F843044690F84100984658
:1014100016460D46202802D00220BDE8F88385B18B
:101420007EB100206064212084F84100FFF7B2FA09
:10143000A6848146E684A0682027B0F5805F02D0AC
:1014400003E00120E9E7206910B12E4600250EE0F7
:1014500000260CE08021204600F02AFAA8B9C6B187
:1014600016F8010B21684860E08C401EE084E08C97
:101470004B464FF00002CDF800800028EAD14FF033
:101480004001204600F014FA40B184F84170032076
:10149000C3E735F8020BC0F30800E3E784F84170B6
:1014A0000020BAE7FEE7000030B587B01421684697
:1014B000FEF78BFF0E480024016841F00101016036
:1014C00000680C4D00F00100059001221021284613
:1014D000FFF75AFA102000900120CDE90104022004
:1014E000039069462846FFF757F907B030BD000062
:1014F0003038024000000240104810B50E4901602B
:101500004FF48271416000218160C1604FF400722C
:101510000161C0E905122022C0E907214162816210
:101520000A21C162FFF76AFD002803D0BDE8104020
:10153000FEF7D3BF10BD00000030014010000020B6
:101540000C4810B50A4901604FF4E13141600021B7
:1015500081600C22C160C0E904128161C161FFF7A2
:10156000EBFE002803D0BDE81040FEF7B6BF10BD6B
:101570000010014068000020FEE7FEE77047000011
:10158000F8B515460E460B4600920446012202218C
:1015900000F02CF8A0B9134813490068B0FBF1F033
:1015A0004FF47A71484300906068B0F5827F0DD1A6
:1015B0003346002280212046009500F017F870B1D4
:1015C000606D40F0200060650320F8BD009830B1E8
:1015D000401E009020688068C0430006F6D50020B9
:1015E000F8BD00000C00002000366E012DE9F84324
:1015F0001E46914688460446089DFFF7CBF9401BDE
:10160000351AFFF7C7F9074626480068C0F3CB3004
:1016100068430AE0701C09D0FFF7BCF9C01BA84260
:101620000FD275B10098B8B3401E00902068816851
:1016300038EA010033D000214945EBD10020BDE854
:10164000F8832068416821F0E00141606068B0F5EE
:10165000827F0BD1A068B0F5004F02D0B0F5806F4B
:1016600004D12068016821F040010160A06AB0F552
:10167000005F09D12068016821F4005101602068F1
:10168000016841F400510160012084F851000020FC
:1016900084F850000320D2E7FFE70025C6E70121C8
:1016A000CAE700000C0000207047FFF779B900007E
:1016B00030B593B030216846FEF787FE14210CA8A0
:1016C000FEF783FE1D480025016841F0805101604E
:1016D000006800F0805011901948016841F4804181
:1016E00001600068022400F4804011900120039002
:1016F0001020009406940490CDE907504FF4A87090
:10170000CDE9090407200B906846FFF7C1FA08B13C
:1017100072B6FEE70CA90F2081E831004FF4A0500B
:101720000F904FF48050109005210CA8FFF7C4F9DA
:10173000002801D072B6FEE713B030BD4038024039
:10174000007000400248016841F470010160704778
:1017500088ED00E001680C3151E8002F22F490720E
:1017600041E80023002BF5D10168143151E8002F26
:1017700022F0010241E80023002BF5D1016B012981
:1017800009D101680C3151E8002F22F0100241E824
:101790000023002BF5D1202180F8421000210163A5
:1017A0007047000070B5044600680169E26821F4E2
:1017B0004051114301612169A068E26908436169F0
:1017C000114308432168CA6849F20C639A430243F3
:1017D000CA6020684169A26921F4407111434161E6
:1017E00031492068884202D03049884202D1FFF74F
:1017F0000DFA01E0FFF7FAF9E269002319216425E7
:101800003226B2F5004F626828D0A0FB0101930F89
:101810009200FEF729FD0146B0FBF5F06FF01802CB
:10182000504301EB800006EB0010B0FBF5F000F038
:10183000F002B1FBF5F002EB0012B1FBF5F06FF036
:101840001803584301EB800006EB0010B0FBF5F0E5
:1018500000F00F0021681044886070BDA0FB0101FA
:1018600092185B41FEF700FD0146B0FBF5F0020166
:10187000B1FBF5F06FF01803584301EB800006EB65
:10188000C000B0FBF5F000F0F80002EB4002B1FB45
:10189000F5F0584301EB800006EBC000B0FBF5F01B
:1018A00000F00700D6E700000010014000140140DE
:1018B0002DE9F843984617460D460446089E24E055
:1018C000701C22D0FFF766F8A0EB0800B0421AD8CF
:1018D000CEB12068C168490717D5802D15D0402D9D
:1018E00013D00168C94309070FD401680025406877
:1018F00000902046FFF72EFF0820606484F84050D7
:101900000120BDE8F8830320FBE72068006835EA82
:10191000000004D00020B842D2D00020F1E701201E
:10192000F9E7FEE70907090E002804DB00F1E020D3
:1019300080F80014704700F00F0000F1E02080F8FC
:10194000141D704792B0FFF733F8FFF7B1FEFFF7B1
:10195000ABFDFFF7D1FDFFF7F3FD4FF47A70FEF713
:1019600009FF5CA0FEF7DAFE5BA0FEF7D7FE65A0DC
:10197000FEF7D4FE6EA0FEF7D1FE78A0FEF7CEFEF5
:1019800055A0FEF7CBFE80A0FEF7C8FE00252C4632
:101990000A20FEF7EFFE00266846FEF7FBFD002852
:1019A0005DD008A968466D1CFEF79AFD1420B5FBB2
:1019B000F0F100FB11500028EAD17AA0FEF7AEFE4C
:1019C0009DED0E0A0220FEF735FE78A0FEF7A6FE7A
:1019D0009DED0F0A0220FEF72DFE76A0FEF79EFE7B
:1019E0009DED100A0220FEF725FE74A0FEF796FE7C
:1019F0009DED080A0320FEF71DFE74A0FEF78EFE83
:101A00009DED090A0320FEF715FE70A0FEF786FE85
:101A10009DED0A0A0320FEF70DFE6DA0FEF77EFE87
:101A20009DED0B0A0120FEF705FE68A0FEF776FE8D
:101A30009DED0C0A0120FEF7FDFD64A0FEF76EFE91
:101A40009DED0D0A0120FEF7F5FD64A0FEF766FE90
:101A50009DED110A0120FEF7EDFD64A036E00120A6
:101A6000FEF788FE761C032E96DB6420641CB4FB14
:101A7000F0F100FB114000288AD15EA0FEF74EFE77
:101A80002846FEF75BFE65A0FEF748FE2046FEF7FF
:101A900055FE65A0FEF742FE9DF80000FEF718FE19
:101AA00064A0FEF73BFE9DF80100FEF711FE61A069
:101AB000FEF734FE9DF80200FEF70AFE5DA0FEF779
:101AC0002DFE9DF80300FEF703FE5CA0FEF726FE48
:101AD0005EE700000D0A00003D3D3D3D3D3D3D3DC2
:101AE0003D3D3D3D3D3D3D3D3D3D3D3D3D3D3D3D26
:101AF0003D3D3D3D3D3D3D3D3D3D3D3D3D3D3D3D16
:101B00003D0D0A00202020473335362041485253EE
:101B1000204D6F64756C6520535049205265636594
:101B2000697665722044656D6F202020200D0A00C3
:101B30002020204D43553A2053544D333246343003
:101B40003756455436207C20426175647261746555
:101B50003A20313135323030200D0A002020204328
:101B60006F6D6D756E69636174696F6E3A20535065
:101B7000493120284D6F646520302C207E322E366E
:101B80004D487A29200D0A005374617274696E679A
:101B900020646174612072656164696E672E2E2E07
:101BA0000D0A0000414E475B523A00002C20503A8B
:101BB000000000002C20593A000000005D20646500
:101BC00067207C204143435B000000002C20000084
:101BD0005D2067207C204759525B00005D206470C7
:101BE00073207C2054656D703A00000020430D0A7C
:101BF000000000005B5761726E696E675D20535094
:101C0000492072656164206661696C6564212053B6
:101C10007563636573733A20000000002C204661F1
:101C2000696C3A20000000002E205261773A205B58
:101C3000307800002C203078000000005D0D0A0094
:101C40004FF04070E1EE100A704700000000000005
:101C50000000010203040607080900000000010259
:101C600003040000841C0008000000201000000095
:101C7000C4010008941C00081000002000070000A8
:101C8000E00100080100000010000000000000005A
:041C90000024F40038
:040000050800018965
:00000001FF
