:020000040800F2
:100000002807002089010008B3100008211000080B
:10001000B11000087F0300089312000800000000E0
:10002000000000000000000000000000B710000801
:100030008103000800000000B5100008B910000896
:10004000A3010008A3010008A3010008A301000800
:10005000A3010008A3010008A3010008A3010008F0
:10006000A3010008A3010008A3010008A3010008E0
:10007000A3010008A3010008A3010008A3010008D0
:10008000A3010008A3010008A3010008A3010008C0
:10009000A3010008A3010008A3010008A3010008B0
:1000A000A3010008A3010008A3010008A3010008A0
:1000B000A3010008A3010008A3010008A301000890
:1000C000A3010008A3010008A3010008A301000880
:1000D000A3010008A3010008A3010008A301000870
:1000E000A3010008A3010008A301000800F002F822
:1000F00000F03AF80AA090E8000C82448344AAF188
:100100000107DA4501D100F02FF8AFF2090EBAE885
:100110000F0013F0010F18BFFB1A43F0010318473B
:10012000C81A0000E81A0000103A24BF78C878C145
:10013000FAD8520724BF30C830C144BF04680C60ED
:10014000704700000023002400250026103A28BF35
:1001500078C1FBD8520728BF30C148BF0B60704739
:100160001FB51FBD10B510BD00F0CFF81146FFF749
:10017000F7FF01F09FF800F0EDF803B4FFF7F2FF8E
:1001800003BC00F0F5F80000094880470948004723
:10019000FEE7FEE7FEE7FEE7FEE7FEE7FEE7FEE737
:1001A000FEE7FEE704480549054A064B7047000094
:1001B00019110008ED000008280100202807002080
:1001C0002803002028030020032A40F2308010F08A
:1001D000030C00F0158011F8013BBCF1020F6244E2
:1001E00098BF11F801CB00F8013B38BF11F8013B73
:1001F000A2F1040298BF00F801CB38BF00F8013B20
:1002000011F0030300F04F80083AC0F0088051F865
:10021000043B083A51F804CBA0E80810F5E7121D9A
:100220005CBF51F8043B40F8043BAFF30080D207B9
:1002300024BF11F8013B11F801CB48BF11F8012B85
:1002400024BF00F8013B00F801CB48BF00F8012BA8
:1002500070474FF0000200B5134694469646203989
:1002600022BFA0E80C50A0E80C50B1F12001BFF46F
:10027000F7AF090728BFA0E80C5048BF0CC05DF8D5
:1002800004EB890028BF40F8042B08BF704748BF23
:1002900020F8022B11F0804F18BF00F8012B704797
:1002A00070477047704710B5203AC0F00B80B1E836
:1002B0001850203AA0E81850B1E81850A0E818509B
:1002C000BFF4F5AF5FEA027C24BFB1E81850A0E8A4
:1002D000185044BF18C918C0BDE810405FEA827CBE
:1002E00024BF51F8043B40F8043B08BF7047D207D5
:1002F00028BF31F8023B48BF11F8012B28BF20F876
:10030000023B48BF00F8012B7047754600F02CF8FF
:10031000AE4605006946534620F00700854618B0F2
:1003200020B5FFF73FFFBDE820404FF000064FF03B
:1003300000074FF000084FF0000B21F00701AC461A
:10034000ACE8C009ACE8C009ACE8C009ACE8C00939
:100350008D46704710B50446AFF300802046BDE8D7
:100360001040FFF70ABF000000487047C40000209B
:1003700001491820ABBEFEE7260002007047FEE7E9
:10038000704772B6FEE7000070B5024621480C4681
:100390002149057801232DB10023012D06D0022D1E
:1003A00008D10EE0AA2A32D10A7003E0552A03D000
:1003B000AA2A2CD003702AE04A70022141700170F1
:1003C00025E045784A556D1CE9B2417020291ED3BD
:1003D000037011488178022917D1C1781E2914D1E0
:1003E000C17F5A2911D100210222835C521C194479
:1003F000C9B21D2AF9DD807F884206D12022064934
:100400002046FFF7E1FE012070BD022070BD0020F4
:1004100070BD000000000020A400002070B505465B
:100420000C46B0F9040001F0E3F96FF00A0631461A
:1004300001F087FB2060B5F9060001F0D9F93146DB
:1004400001F07FFB6060B5F9080001F0D1F9314699
:1004500001F077FBA060B5F90A0001F0C9F9124E6E
:10046000314601F0F1F9E060B5F90C0001F0C0F996
:10047000314601F0E9F92061B5F90E0001F0B8F953
:10048000314601F0E1F960612869A0616869E061C5
:10049000A8692062B5F91C0001F0AAF9034901F02E
:1004A000D3F9606270BD000090C1793D0AD7233C4A
:1004B0002DE9F0410D46064610F1FF4F04D31EA072
:1004C00000F040F886F000464FF07C5000241B4FAF
:1004D00003E0394601F0AAF8641CAC42F9DB01469E
:1004E000304601F03BF8044601F062F9064600F0A0
:1004F00039F8002D1DDD12A000F024F8304601F07F
:100500008FF9214601F06CFA0024B8460FE041460D
:1005100001F09AF9064601F04BF9074600F022F87F
:10052000384601F07DF9314601F05AFA641CAC42BC
:10053000EDDBBDE8F08100002D000000000020414F
:100540002E00000010B5044606E00A2301222146D1
:10055000034800F015FD641C20780028F5D110BD7B
:10056000140000203EB50B2100236A468DF80B30A5
:1005700078B10A23B0FBF3F403FB1404B0FBF3F0EF
:10058000491E303454540028F4D15018FFF7DAFFD4
:100590003EBD01A0FAE700003000000070B504463F
:1005A00000F0FEF80546601C02D0044800780444C0
:1005B00000F0F6F8401BA042FAD370BD0400002002
:1005C0002DE9F84FDFF8B8910024A9F1040B234678
:1005D0000F2709F1040AABF1040EC9E00125A5407B
:1005E0002A40AA427DD1674ED1F804C0ACEB060880
:1005F000B44532D014DCBCF1030F3AD009DCBCF1B5
:10060000000F2AD0BCF1010F1CD0BCF1020F31D178
:100610001DE0BCF1110F17D0BCF1120F2AD119E067
:10062000B8F5881F19D006DCB8F5803F15D0B8F5AD
:10063000801F1FD111E0B8F5001F0ED0B8F5041FC0
:1006400018D10AE0CB6815E0CB681B1D12E0CB681F
:1006500008330FE0CB680C330CE08B682BB1012B17
:100660004FF0080303D0456104E0042302E0056174
:1006700000E00023FF2A01D8064601E000F104064D
:100680004FEA840501D9A5F12005D6F8008007FAC4
:1006900005FC28EA0C0803FA05F548EA0508C6F83F
:1006A00000804D68ED0062D5374DAE6946F0010619
:1006B000AE61AD6924F0030605F001050095334DE8
:1006C00006EB050CDCF80850A607360F07FA06F80B
:1006D00025EA0805DFF8B880404503D14FF000084F
:1006E00017E044E0DFF8AC80404502D14FF001084C
:1006F0000FE0DFF8A480404502D14FF0020808E087
:10070000DFF89880404502D14FF0030801E04FF038
:10071000040808FA06F848EA0508CCF808804D688D
:10072000D9F80060ED024D4601D5164300E096432E
:100730002E604D68DAF80060AD02554601D51643CB
:1007400000E096432E604D68DBF80060AD035D4627
:1007500001D5164300E096432E604D68DEF8006038
:10076000ED03754601D5164300E096432E60641CE8
:100770000D682A46E5407FF431AFBDE8F88F0000F0
:100780000804014000001110001002400000014068
:1007900000080140000C014000100140001401401D
:1007A000014880687047000004000020024881680A
:1007B000027811448160704704000020074810B59A
:1007C000016841F010010160032000F067F80F207C
:1007D00000F006F800F024F8002010BD00200240D0
:1007E00070B50D4D04464FF47A712878B1FBF0F0E6
:1007F0000A490968B1FBF0F000F0CEFA48B9102CB4
:1008000007D200222146501E00F028F800206C601C
:1008100070BD012070BD0000040000201000002009
:100820000C4808B5816941F001018161816901F0DD
:1008300001010091C16941F08051C161C06900F0BE
:10084000805000900448416821F0E06141F000715F
:10085000416008BD0010024000000140F0B40E4BA2
:100860001B680C46C3F30223C3F10705042D00D90E
:100870000425191D072901D2002300E0DB1E0126F3
:1008800006FA05F1491E214099409E40761E164009
:100890003143F0BC00F0FEBC0CED00E0064900F076
:1008A000070208684FF6FF03184040EA0220034A97
:1008B00010430860704700000CED00E00000FA05EE
:1008C0002DE9F0470F46050061D0434E306800F037
:1008D0000700B84209D2306820F007003843306082
:1008E000306800F00700B84251D128683B4C8107BE
:1008F00012D5400703D5606840F4E0606060287856
:10090000000703D5606840F4605060606068A968C3
:1009100020F0F000084360602878C00728D068689D
:10092000012810D02168022810D0890700292EDA6A
:10093000616821F0030101436160FFF731FF8046E8
:1009400041F288390DE021688903EFE78901EDE77D
:10095000FFF726FFA0EB0801494502D90320BDE8B7
:10096000F0876068696800F00C00B0EB810FEFD190
:10097000306800F00700B8420BD9306820F007005B
:1009800038433060306800F00700B84201D00120E1
:10099000E5E72878400705D56068E96820F4E0605D
:1009A000084360602878000706D56068296920F44C
:1009B000605040EAC100606000F038F86168084AA1
:1009C000C1F30311515CC84006490860064800683D
:1009D000FFF706FF0020C2E700200240001002409F
:1009E000D01B000810000020080000200448054922
:1009F00000684968044AC1F30221515CC84070474D
:100A00001000002000100240E01B000804480549C7
:100A100000684968044AC1F3C221515CC84070476C
:100A20001000002000100240E01B00080E4A516830
:100A30000E4801F00C03042B11D0082B0FD10C48E9
:100A4000C1F38343C903C05C0AD55168084AC1F3A6
:100A50004041921E515C054A5043B0FBF1F0704793
:100A600004494843704700000010024000127A0019
:100A7000C01B000800093D002DE9F84F040070D0AC
:100A80002078C04DC00749D06868C0F381000128B4
:100A900007D06868C0F38100022809D16868C003E4
:100AA00006D52868800339D560680028E7D035E08E
:100AB0006068B0F5803F0BD010B1B0F5A02F11D019
:100AC000286820F480302860286820F4802002E024
:100AD000286840F480302860606890B1FFF760FEBD
:100AE00006460AE0286840F480202860F0E700BF4E
:100AF000FFF756FE801B642873D828688003F7D55B
:100B00000CE0FFF74DFE064605E000BFFFF748FE8C
:100B1000801B6428F0D828688003F7D420789A4E88
:100B200080074FF001094FF0000839D5686810F0D0
:100B30000C0F07D06868C0F38100022809D16868EB
:100B4000C00306D42868800714D52069012808D17D
:100B500010E02069B0B1C6F80090FFF721FE07460B
:100B600005E00AE1FFF71CFEC01B0228C4D8286874
:100B70008007F7D52868616920F0F80040EAC100D5
:100B800028600DE0C6F80080FFF70AFE074604E083
:100B9000FFF706FEC01B022823D828688007F7D479
:100BA000207800072CD57948A169D9B1C0F8009008
:100BB000FFF7F6FD074604E0FFF7F2FDC01B022831
:100BC0000FD8686A8007F7D571484FF4FA5100686A
:100BD000B0FBF1F0009000BF0098411E0091FAD2E6
:100BE0000EE080E0C0F80080FFF7DAFD074604E081
:100BF000FFF7D6FDC01B022875D8686A8007F7D4B6
:100C00002078400760D5E8690027C00008D4E8696B
:100C100040F08050E861E869012700F080500090C2
:100C20005C480168C90513D40168834641F48071AA
:100C30000160FFF7B5FD824606E000BFFFF7B0FD9B
:100C4000A0EB0A0064284ED8DBF80000C005F5D5FB
:100C5000E06801280AD008B1052813D0286A20F0DE
:100C600001002862286A20F0040002E0286A40F0AF
:100C700001002862E06841F2883B98B1FFF790FDDF
:100C800082460BE0286A40F004002862EEE700BFCD
:100C9000FFF786FDA0EB0A0159455AD8286A80075C
:100CA000F6D50CE0FFF77CFD824605E0FFF778FD06
:100CB000A0EB0A0159454CD8286A8007F6D41FB129
:100CC000E86920F08050E861E06988B36968C1F3A1
:100CD0008101022944D00228C6F8608004D0FFF7C1
:100CE0005FFD044638E034E0FFF75AFD074604E0B4
:100CF000FFF756FDC01B02282BD828688001F7D4C7
:100D0000206AB0F5803F05D16868A16820F4003002
:100D100008436860D4E908010843696821F4741144
:100D200008436860C6F86090FFF73AFD044606E0A5
:100D300025E000BFFFF734FD001B022809D8286812
:100D40008001F7D51BE000BFFFF72AFD001B02283A
:100D500002D90320BDE8F88F28688001F4D40EE0A2
:100D60000128F7D06868226A00F48031914204D1EA
:100D7000616A00F47010884201D00120EAE7002087
:100D8000E8E70000001002400000424280044242B6
:100D9000100000200070004010B5401EB0F1807FB0
:100DA00001D3012010BD4FF0E02460610F216017D6
:100DB00000F070FA0020A06107202061002010BD23
:100DC00070B5040004D094F84100002510B106E08D
:100DD000012070BD84F84050204600F023F8242004
:100DE00084F841002068C16821F40051C1602046A8
:100DF00000F0BAF92068016921F49041016120688E
:100E0000416921F02A0141612068C16841F4005123
:100E1000C1606564202084F8410084F84200656365
:100E2000002070BD70B586B0002400940194029437
:100E30000394234E0368234902200322224DB34228
:100E400019D18B6943F004038B618B6903F00403B0
:100E500004938B6943F480438B618969039201F4A5
:100E6000804104910102CDE9001069462846FFF750
:100E7000A7FB28151BE0154EB3421ED18B6943F02A
:100E800004038B618B6903F004030493CB6943F47F
:100E90000033CB61C969039201F40031049104214C
:100EA000CDE9001069462846FFF78AFB0820CDE906
:100EB000000469462846FFF783FB06B070BD0000BA
:100EC000003801400010024000080140004400408A
:100ED0002DE9F84F044690F842009A4616460D4612
:100EE000202802D00220BDE8F88FB5B1AEB10020B5
:100EF0006064222184F842102063FFF751FCA6852C
:100F00008146E685A0684FF480582027404501D1EE
:100F1000206920B12E46002529E00120E3E70026C4
:100F200025E04B46002220212046CDF800A000F00D
:100F300077F918B184F842700320D4E726B1A0688D
:100F400040451AD038B108E020684068C0F3080076
:100F500025F8020B08E0206978B12068406800F0AD
:100F60007F0000BF06F8010BE08D401EE085E08D9C
:100F70000028D6D184F84270B5E720684068F1E7D0
:100F80002DE9F843044690F84100984616460D4670
:100F9000202802D00220BDE8F88385B17EB1002070
:100FA0006064212084F84100FFF7FAFBA6848146A3
:100FB000E684A0682027B0F5805F02D003E001201E
:100FC000E9E7206910B12E4600250EE000260CE06E
:100FD0008021204600F024F9A8B9C6B116F8010B0B
:100FE00021684860E08C401EE084E08C4B464FF066
:100FF0000002CDF800800028EAD14FF040012046E1
:1010000000F00EF940B184F841700320C3E735F8D1
:10101000020BC0F30800E3E784F841700020BAE750
:10102000FEE70000054808B5816941F004018161CF
:10103000806900F00400009008BD0000001002402C
:101040000C4810B50A4901604FF4E13141600021BC
:1010500081600C22C160C0E904128161C161FFF7A7
:10106000AFFE002803D0BDE81040FFF78AB910BDDD
:1010700000380140140000200C4810B50A490160F6
:101080004FF4E1314160002181600C22C160C0E970
:1010900004128161C161FFF793FE002803D0BDE80F
:1010A0001040FFF76EB910BD004400405C00002006
:1010B000FEE7FEE770477047FFF778BB30B58FB0AB
:1010C00028216846FFF7C5F814210AA8FFF7C1F8E0
:1010D00002250120049000951020059000244FF473
:1010E0006010CDE9084007956846FFF7C5FC08B1D8
:1010F00072B6FEE70F20CDE90A054FF48060CDE916
:101100000C4002210AA80E94FFF7DAFB002801D058
:1011100072B6FEE70FB030BD704701680C3151E880
:10112000002F22F4907241E80023002BF5D10168D2
:10113000143151E8002F22F0010241E80023002B76
:10114000F5D1016B012909D101680C3151E8002F5B
:1011500022F0100241E80023002BF5D1202180F875
:10116000421000210163704770B5044600680169B0
:10117000E26821F44051114301612169A0680843EC
:10118000616908432168CA6841F20C639A430243CB
:10119000CA6020684169A26921F44071114341612C
:1011A0001E492068884202D1FFF730FC01E0FFF7BA
:1011B0001DFC00EBC00101EB00126068642180009F
:1011C000B2FBF0F3B3FBF1F36FF018067343B2FB1D
:1011D000F0F5B2FBF0F605EB8305322303EB0515C2
:1011E000B5FBF1F5B6FBF1F605F0F00505EB0615DC
:1011F000B2FBF0F6B2FBF0F0B0FBF1F06FF01802CA
:10120000504306EB800003EB0010B0FBF1F02168C7
:1012100000F00F002844886070BD000000380140D5
:101220002DE9F843984617460D460446089E24E0EB
:10123000701C22D0FFF7B4FAA0EB0800B0421AD815
:10124000CEB12068C168490717D5802D15D0402D33
:1012500013D00168C94309070FD40168002540680D
:1012600000902046FFF759FF0820606484F8405042
:101270000120BDE8F8830320FBE72068006835EA19
:10128000000004D00020B842D2D00020F1E70120B5
:10129000F9E7FEE70907090E002804DB00F1E0206A
:1012A00080F80014704700F00F0000F1E02080F893
:1012B000141D704794B0FFF781FAFFF7FFFEFFF7A8
:1012C000B1FEFFF7BDFEFFF7D7FE4FF47A70FFF7D0
:1012D00065F94BA0FFF736F94AA0FFF733F954A0A0
:1012E000FFF730F95DA0FFF72DF967A0FFF72AF9A6
:1012F00044A0FFF727F96FA0FFF724F90024254643
:10130000661E3346012212A97148FFF7E1FD00284D
:10131000F7D10AA99DF84800FFF736F801281AD03E
:101320000228EED164206D1CB5FBF0F100FB1150DA
:101330000028E6D167A0FFF705F92046FFF712F96C
:101340006FA0FFF7FFF82846FFF70CF92CA000BFAD
:10135000FFF7F8F8D5E769460AA8641CFFF75EF8BE
:101360001420B4FBF0F100FB11400028C9D167A0A4
:10137000FFF7E8F802210698FFF79AF865A0FFF753
:10138000E1F802210798FFF793F864A0FFF7DAF875
:1013900002210898FFF78CF862A0FFF7D3F8032129
:1013A0000098FFF785F863A0FFF7CCF803210198B8
:1013B000FFF77EF85FA0FFF7C5F803210298FFF75B
:1013C00077F85DA0FFF7BEF801210398FFF770F8EA
:1013D00058A0FFF7B7F801210498FFF769F855A066
:1013E000FFF7B0F801210598FFF762F855A0FFF765
:1013F000A9F801210998FFF75BF856A0A8E70000BB
:101400000D0A00003D3D3D3D3D3D3D3D3D3D3D3DE9
:101410003D3D3D3D3D3D3D3D3D3D3D3D3D3D3D3DFC
:101420003D3D3D3D3D3D3D3D3D3D3D3D3D0D0A008C
:10143000202020473335362041485253204D6F64D9
:10144000756C652055415254205265636569766517
:10145000722044656D6F2020200D0A002020204D51
:1014600043553A2053544D33324631303343385488
:1014700036207C2042617564726174653A20313196
:1014800035323030200D0A00202020436F6D6D75FD
:101490006E69636174696F6E3A20555341525432DC
:1014A00020283131353230302C20384E312920205F
:1014B000200D0A005374617274696E672064617450
:1014C000612072656164696E672E2E2E0D0A000020
:1014D0005C0000205B5761726E696E675D2046722A
:1014E000616D652076616C69646174696F6E2066F8
:1014F00061696C6564212056616C69643A20000062
:101500002C20496E76616C69643A2000414E475B3D
:10151000523A00002C20503A000000002C20593A8A
:10152000000000005D20646567207C204143435B30
:10153000000000002C2000005D2067207C2047591F
:10154000525B00005D20647073207C2054656D70D8
:101550003A00000020430D0A0000000090EA010F4D
:1015600048BF81F0004100F14C82421A3CBF801A12
:1015700089184FEAD0524FF07F4C1CEA410FA2EB82
:10158000D15318BF9CEA026F00F03B804FF0004C33
:101590004CEA00204CEA012121FA03FC10EB0C0C70
:1015A0001ED202F1FF325FEA1C2040EBC25038BF6E
:1015B00070471CF07F0F4FEA400C18BFBCF17F4F03
:1015C00038BF7047C3F12003994008BF20F00100E5
:1015D000BCF17F4F38BF7047A0F1C04000F0FBB9AD
:1015E0004FEA3C00000A40EBC25028BF1CF0FF0F3E
:1015F0004FEA400CE6D018BFBCF17F4F38BF7047B0
:10160000EAE79CEA026F05D010EA5C0F08BF00F021
:101610000040704710B500F098F900BF64FBBE3E73
:10162000014800F05CBA00BF0000C07F4FF47F0C9F
:101630001CEAD0121EBF1CEAD11392EA0C0F93EAE7
:101640000C0F00F0858090EA010F48BF42F48072D1
:1016500040F4000C41F400002CF07F4120F07F406A
:1016600000B58142A2EB03020FF2081CACEB504E16
:10167000C0F100009EF800E04FEA4E0E00FB0EFCA9
:1016800038BF49004FEA2C1C02F5FA020CFB0EF39E
:101690004FEACE1E4FEA112C4FEAC1210EEB635EDA
:1016A00042EB22420EFB0CFC4FEA1C5300FB0311E1
:1016B0004FEA112C4FEA01310EFB0CFC4FEADC4CD7
:1016C00000FB0C11C14228BF09184CEB03335DF835
:1016D00004EB10EB410143EBC250B2F57C0F38BF75
:1016E000704729D512F0F00F1CBF00F1C04000F088
:1016F00000407047008182838485868788898B8C2F
:101700008D8E8F919293959697999A9C9D9FA0A26A
:10171000A3A5A7A8AAACAEB0B2B3B5B7B9BCBEC0BA
:10172000C2C5C7C9CCCED1D4D7D9DCDFE2E6E9EC5B
:10173000F0F3F7FAFE0000004FEA400C0CF1807C59
:10174000BCF17E4F28BF7047B0F1C04000F043B9F4
:1017500090EA010F0CEAD11348BF42F4807262454F
:1017600038BF634507D213F47F0F16D080EA01001B
:1017700000F00040704710B500F0E7F8097EFC3E2D
:1017800000F005B880EA010000F00040704780EAF0
:10179000010000F0004000F01EB912F47F0F04BFFA
:1017A0000248704780EA010000F015B90000C07FD0
:1017B000C10DD1F19E0206DB4FEA002343F0004346
:1017C00023FA02F07047004207D54FEA4001B1F119
:1017D000FE4F02D24FF00000704710B500F0B5F890
:1017E00049922480002070476FEA20007047000073
:1017F00010F0004148BF4042B0FA80F310FA03F203
:10180000C3F19D030BD051EAC35101EB12205306E3
:1018100038BF704700F1010008BF20F00100704799
:10182000B0FA80F310FA03F2C3F19D030AD0D90590
:1018300001EB1220530638BF704700F1010008BFCA
:1018400020F00100704700004FF47F0C1CEAD0121A
:101850001EBF1CEAD11392EA0C0F93EA0C0F00F0A2
:10186000478090EA010F48BF42F480724FF0004C6D
:101870004CEA00204CEA012102EB0302A0FB011319
:10188000A2F50002002918BF43F001035B0028BF46
:101890004FEA330342EB22425FEA132C4CEBC25077
:1018A0002EBFBCEB436FB2F57C0F70474FEA036C61
:1018B000BCF1004F08BF20F00100B2F57C0F38BF2B
:1018C00070470BD582F0FF0212F5803FC8BF70470A
:1018D00000F1C040D8BF00F00040704700F5000C98
:1018E0005FEA4C0C48BF7047B0F1C04000F073B8DD
:1018F00090EA010F0CEAD11348BF42F480726245AE
:1019000038BF634504D280EA010000F00040704710
:1019100010B500F01AF800BF8900013E00F007B8CA
:1019200000F009B85FEA410C5FEA1C6C08D080EA5D
:10193000010000F050B85FEA400C5FEA1C6CF6D181
:101940004FF00040A0F5800070470EF1020E2EF01F
:10195000030E5EF8044B244204D44FEA4102B2F174
:101960007F4F11D84FEA4003B3F17F4F0CD80ED10F
:101970004FEAD07CB2F17F4F0CEB4C0C0CF1020C17
:1019800008BF4CEBD17C04E04FF0080C01E04FEABB
:10199000D17C0CEB4C0324FA03F404F00704B4F1FB
:1019A000040C06D20EEB840CBDE810404CF0010C88
:1019B0006047DFE80CF0070802024FF00040A0F596
:1019C000800010BD0846420018BFD2F1807288BF67
:1019D00000F0004010BDFF2141EAD050C005704723
:1019E00080F0004090EA010F7FF5BFAD81F000412B
:1019F00000F007B890EA010F48BF81F000413FF5C1
:101A0000B4AD421A04D882F00042A0EB02001144A7
:101A10004FEAD0524FF07F4C1CEA410FA2EBD1535A
:101A200018BF9CEA026F4AD04FF0004C4CEA0020ED
:101A30004CEA012121FA03FCB0EB0C0C0FD412F09C
:101A4000FE0F36D05FEA4C001DD5001240EBC250AD
:101A500038BF70471CF03F0F18BF70470BE0A2F172
:101A600001025FEA1C2040EBC25038BF70471CF0F7
:101A70007F0F18BF7047C3F12003994014BF401E69
:101A800020F00100704780084FEA122308BF70471A
:101A9000B0FA80FCA2EB0C02CCF1280C60FA0CF03E
:101AA00093EA122F04BF00EBC25070474FEAC37095
:101AB0007047130A5FEADC1008BF7047F6E79CEA3C
:101AC000026F04D010EA5C0F08BF0020704710B509
:101AD000FFF73BFF40DFF63E81F0004070470CF01F
:101AE0000F03092B08BF082000F051800A2B0BD0F0
:101AF000082B18BF704708BF1CF0400F0AD04FF0EA
:101B000000004FF0000170471CF0400F18BF4FF06D
:101B1000004070471CF0100F08D020F0704300F018
:101B20007F4242EAD3014FEA4370704700F06040C1
:101B300021F07F4242EA000201F07F4040EA7270E9
:101B400070474FF0FF0212EAD0521CBF92F0FF0321
:101B50008B42C2BFD14200EBC1507047002A0AD06D
:101B6000002B0BD0002900F00040A4BF40F0FE4045
:101B700040F40000704700F00040704743024FF00F
:101B80000B0C18BF4CF0806C7FF44AAD70471CF40E
:101B9000801F11D01CF4E02F03D06FEACC31490034
:101BA00070474FF04050EFF3008222F0704242EA5B
:101BB000000282F3008870474FF000007047010276
:101BC00002030405060708090A0B0C0D0E0F10107E
:101BD00000000000000000000102030406070809DD
:101BE0000000000001020304081C0008000000209F
:101BF00014000000280100081C1C0008140000202C
:101C0000140700004401000800000000010000006B
:0C1C1000100000000000000000127A002C
:04000005080000ED02
:00000001FF
