:020000040800F2
:100000001007002089010008471300087512000836
:1000100045130008470300081716000800000000F9
:10002000000000000000000000000000391400087B
:100030004903000800000000491300083B140008B1
:10004000A3010008A3010008A3010008A301000800
:10005000A3010008A3010008A3010008A3010008F0
:10006000A3010008A3010008A3010008A3010008E0
:10007000A3010008A3010008A3010008A3010008D0
:10008000A3010008A3010008A3010008A3010008C0
:10009000A3010008A3010008A3010008A3010008B0
:1000A000A3010008A3010008A3010008A3010008A0
:1000B000A3010008A3010008A3010008A301000890
:1000C000A3010008A3010008A3010008A301000880
:1000D000A3010008A3010008A3010008A301000870
:1000E000A3010008A3010008A301000800F002F822
:1000F00000F03AF80AA090E8000C82448344AAF188
:100100000107DA4501D100F02FF8AFF2090EBAE885
:100110000F0013F0010F18BFFB1A43F0010318473B
:100120008C1E0000AC1E0000103A24BF78C878C1B5
:10013000FAD8520724BF30C830C144BF04680C60ED
:10014000704700000023002400250026103A28BF35
:1001500078C1FBD8520728BF30C148BF0B60704739
:100160001FB51FBD10B510BD00F0B4F81146FFF764
:10017000F7FF01F061FA00F0D2F803B4FFF7F2FFE5
:1001800003BC00F0D9F8000009488047094800473F
:10019000FEE7FEE7FEE7FEE7FEE7FEE7FEE7FEE737
:1001A000FEE7FEE704480549054A064B7047000094
:1001B0009B140008ED00000810010020100700202B
:1001C000100300201003002010B5203AC0F00B806F
:1001D000B1E81850203AA0E81850B1E81850A0E84B
:1001E0001850BFF4F5AF5FEA027C24BFB1E81850A5
:1001F000A0E8185044BF18C918C0BDE810405FEA15
:10020000827C24BF51F8043B40F8043B08BF704790
:10021000D20728BF31F8023B48BF11F8012B28BF95
:1002200020F8023B48BF00F8012B704702F0FF03A3
:1002300043EA032242EA024200F02CB84FF00002E7
:1002400000B5134694469646203922BFA0E80C50CC
:10025000A0E80C50B1F12001BFF4F7AF090728BFA7
:10026000A0E80C5048BF0CC05DF804EB890028BF23
:1002700040F8042B08BF704748BF20F8022B11F04C
:10028000804F18BF00F8012B7047704770477047C8
:100290004FF000020429C0F0128010F0030C3FF46C
:1002A000CFAFCCF1040CBCF1020F18BF00F8012B4A
:1002B000A8BF20F8022BA1EB0C01FFF7C1BF5FEA3A
:1002C000C17C24BF00F8012B00F8012B48BF00F8C7
:1002D000012B7047754600F02BF8AE4605006946C5
:1002E000534620F00700854618B020B5FFF75AFFA7
:1002F000BDE820404FF000064FF000074FF0000827
:100300004FF0000B21F00701AC46ACE8C009ACE8A7
:10031000C009ACE8C009ACE8C0098D46704710B50B
:100320000446AFF300802046BDE81040FFF725BF2C
:1003300000487047B000002001491820ABBEFEE71E
:10034000260002007047FEE7704772B6FEE7000025
:1003500070B505460C46B0F9040001F02BFC6FF0B7
:100360000A06314601F0CFFD2060B5F9060001F024
:1003700021FC314601F0C7FD6060B5F9080001F0CD
:1003800019FC314601F0BFFDA060B5F90A0001F08B
:1003900011FC124E314601F039FCE060B5F90C0059
:1003A00001F008FC314601F031FC2061B5F90E0086
:1003B00001F000FC314601F029FC60612869A06170
:1003C0006869E061A8692062B5F91C0001F0F2FBE0
:1003D000034901F01BFC606270BD000090C1793DD3
:1003E0000AD7233CF0B589B00446FF22202101A89A
:1003F000FFF71CFF214F00220421384600F0E0F9EE
:100400000026009600BF0098401C00903228F9DBBF
:10041000642000902023224601A9194800F064FDC1
:100420000546009600BF0098401C00903228F9DB7A
:1004300001220421384600F0C3F9CDB92078AA285A
:1004400016D16078552813D1E07F5A2810D1A078B2
:1004500002280DD1E0781E280AD100210220225C5A
:10046000401C1144C9B21D28F9DDA07F884202D08A
:10047000002009B0F0BD0120FBE7000000080140AA
:10048000100000202DE9F0410D46064610F1FF4F07
:1004900004D31EA000F066F886F000464FF07C50B2
:1004A00000241B4F03E0394601F0A2FA641CAC4261
:1004B000F9DB0146304601F033FA044601F05AFBFD
:1004C000064600F05FF8002D1DDD12A000F04AF88E
:1004D000304601F087FB214601F064FC0024B84659
:1004E0000FE0414601F092FB064601F043FB074650
:1004F00000F048F8384601F075FB314601F052FC37
:10050000641CAC42EDDBBDE8F08100002D00000072
:10051000000020412E00000010B586B004461422D1
:100520000BA16846FFF750FE684600EB14110978EE
:100530008DF8141004F00F011DF801008DF815005E
:1005400000208DF8160005A800F00CF806B010BDCC
:1005500030313233343536373839414243444546F9
:100560000000000010B5044606E00A2301222146DF
:10057000034800F02FFE641C20780028F5D110BD40
:10058000680000203EB50B2100236A468DF80B3031
:1005900078B10A23B0FBF3F403FB1404B0FBF3F0CF
:1005A000491E303454540028F4D15018FFF7DAFFB4
:1005B0003EBD01A0FAE700003000000070B504461F
:1005C00000F004F90546601C02D004480078044499
:1005D00000F0FCF8401BA042FAD370BD00000020E0
:1005E0002DE9F84FDFF8B8910024A9F1040B234658
:1005F0000F2709F1040AABF1040EC9E00125A5405B
:100600002A40AA427DD1674ED1F804C0ACEB06085F
:10061000B44532D014DCBCF1030F3AD009DCBCF194
:10062000000F2AD0BCF1010F1CD0BCF1020F31D158
:100630001DE0BCF1110F17D0BCF1120F2AD119E047
:10064000B8F5881F19D006DCB8F5803F15D0B8F58D
:10065000801F1FD111E0B8F5001F0ED0B8F5041FA0
:1006600018D10AE0CB6815E0CB681B1D12E0CB68FF
:1006700008330FE0CB680C330CE08B682BB1012BF7
:100680004FF0080303D0456104E0042302E0056154
:1006900000E00023FF2A01D8064601E000F104062D
:1006A0004FEA840501D9A5F12005D6F8008007FAA4
:1006B00005FC28EA0C0803FA05F548EA0508C6F81F
:1006C00000804D68ED0062D5374DAE6946F00106F9
:1006D000AE61AD6924F0030605F001050095334DC8
:1006E00006EB050CDCF80850A607360F07FA06F8EB
:1006F00025EA0805DFF8B880404503D14FF000082F
:1007000017E044E0DFF8AC80404502D14FF001082B
:100710000FE0DFF8A480404502D14FF0020808E066
:10072000DFF89880404502D14FF0030801E04FF018
:10073000040808FA06F848EA0508CCF808804D686D
:10074000D9F80060ED024D4601D5164300E096430E
:100750002E604D68DAF80060AD02554601D51643AB
:1007600000E096432E604D68DBF80060AD035D4607
:1007700001D5164300E096432E604D68DEF8006018
:10078000ED03754601D5164300E096432E60641CC8
:100790000D682A46E5407FF431AFBDE8F88F0000D0
:1007A0000804014000001110001002400000014048
:1007B00000080140000C01400010014000140140FD
:1007C0000AB1016170470904FBE700000148806835
:1007D0007047000000000020024881680278114440
:1007E0008160704700000020074810B5016841F0A3
:1007F00010010160032000F067F80F2000F006F8F8
:1008000000F024F8002010BD0020024070B50D4D0E
:1008100004464FF47A712878B1FBF0F00A49096870
:10082000B1FBF0F000F058FC48B9102C07D20022C0
:100830002146501E00F028F800206C6070BD012099
:1008400070BD0000000000200C0000200C4808B51E
:10085000816941F001018161816901F0010100912B
:10086000C16941F08051C161C06900F080500090C1
:100870000448416821F0E06141F00071416008BD29
:100880000010024000000140F0B40E4B1B680C4603
:10089000C3F30223C3F10705042D00D90425191D54
:1008A000072901D2002300E0DB1E012606FA05F12C
:1008B000491E214099409E40761E16403143F0BCAF
:1008C00000F0AABE0CED00E0064900F0070208683F
:1008D0004FF6FF03184040EA0220034A1043086025
:1008E000704700000CED00E00000FA052DE9F0472C
:1008F0000F46050061D0434E306800F00700B84253
:1009000009D2306820F0070038433060306800F0CA
:100910000700B84251D128683B4C810712D54007E7
:1009200003D5606840F4E06060602878000703D574
:10093000606840F4605060606068A96820F0F00072
:10094000084360602878C00728D06868012810D064
:100950002168022810D0890700292EDA616821F069
:10096000030101436160FFF731FF804641F288399E
:100970000DE021688903EFE78901EDE7FFF726FF26
:10098000A0EB0801494502D90320BDE8F087606863
:10099000696800F00C00B0EB810FEFD1306800F017
:1009A0000700B8420BD9306820F0070038433060A8
:1009B000306800F00700B84201D00120E5E7287850
:1009C000400705D56068E96820F4E060084360608E
:1009D0002878000706D56068296920F4605040EA4D
:1009E000C100606000F038F86168084AC1F3031183
:1009F000515CC8400649086006480068FFF706FFDA
:100A00000020C2E70020024000100240941F0008AE
:100A10000C000020040000200448054900684968D3
:100A2000044AC1F30221515CC84070470C00002009
:100A300000100240A41F00080448054900684968E6
:100A4000044AC1F3C221515CC84070470C00002029
:100A500000100240A41F00080E4A51680E4801F021
:100A60000C03042B11D0082B0FD10C48C1F3834386
:100A7000C903C05C0AD55168084AC1F34041921EBF
:100A8000515C054A5043B0FBF1F0704704494843BC
:100A9000704700000010024000127A00841F000816
:100AA00000093D002DE9F84F040070D02078C04DBA
:100AB000C00749D06868C0F38100012807D0686882
:100AC000C0F38100022809D16868C00306D52868F0
:100AD000800339D560680028E7D035E06068B0F55C
:100AE000803F0BD010B1B0F5A02F11D0286820F4B2
:100AF00080302860286820F4802002E0286840F4D4
:100B000080302860606890B1FFF760FE06460AE01A
:100B1000286840F480202860F0E700BFFFF756FE09
:100B2000801B642873D828688003F7D50CE0FFF792
:100B30004DFE064605E000BFFFF748FE801B642817
:100B4000F0D828688003F7D420789A4E80074FF0B9
:100B500001094FF0000839D5686810F00C0F07D074
:100B60006868C0F38100022809D16868C00306D410
:100B70002868800714D52069012808D110E0206971
:100B8000B0B1C6F80090FFF721FE074605E00AE184
:100B9000FFF71CFEC01B0228C4D828688007F7D5C1
:100BA0002868616920F0F80040EAC10028600DE083
:100BB000C6F80080FFF70AFE074604E0FFF706FECE
:100BC000C01B022823D828688007F7D420780007A4
:100BD0002CD57948A169D9B1C0F80090FFF7F6FD8E
:100BE000074604E0FFF7F2FDC01B02280FD8686A31
:100BF0008007F7D571484FF4FA510068B0FBF1F067
:100C0000009000BF0098411E0091FAD20EE080E0F3
:100C1000C0F80080FFF7DAFD074604E0FFF7D6FDD5
:100C2000C01B022875D8686A8007F7D4207840076F
:100C300060D5E8690027C00008D4E86940F080501A
:100C4000E861E869012700F0805000905C48016885
:100C5000C90513D40168834641F480710160FFF730
:100C6000B5FD824606E000BFFFF7B0FDA0EB0A002D
:100C700064284ED8DBF80000C005F5D5E0680128EF
:100C80000AD008B1052813D0286A20F00100286294
:100C9000286A20F0040002E0286A40F0010028627F
:100CA000E06841F2883B98B1FFF790FD82460BE087
:100CB000286A40F004002862EEE700BFFFF786FDD7
:100CC000A0EB0A0159455AD8286A8007F6D50CE0EE
:100CD000FFF77CFD824605E0FFF778FDA0EB0A01F7
:100CE00059454CD8286A8007F6D41FB1E86920F02E
:100CF0008050E861E06988B36968C1F38101022925
:100D000044D00228C6F8608004D0FFF75FFD044697
:100D100038E034E0FFF75AFD074604E0FFF756FDE0
:100D2000C01B02282BD828688001F7D4206AB0F5B0
:100D3000803F05D16868A16820F4003008436860EE
:100D4000D4E908010843696821F474110843686014
:100D5000C6F86090FFF73AFD044606E025E000BFC4
:100D6000FFF734FD001B022809D828688001F7D559
:100D70001BE000BFFFF72AFD001B022802D9032059
:100D8000BDE8F88F28688001F4D40EE00128F7D080
:100D90006868226A00F48031914204D1616A00F4EB
:100DA0007010884201D00120EAE70020E8E7000047
:100DB0000010024000004242800442420C00002029
:100DC0000070004070B5040009D0606A002540B191
:100DD00025616561A56294F8510040B10CE00120E5
:100DE00070BD6068B0F5827FF4D0E561F2E784F809
:100DF0005050204600F040F8022084F8510020684E
:100E0000016821F040010160A088218900F482700E
:100E100001F404410843A18901F400610843217CE5
:100E200001F002010843217D01F001010843218BFB
:100E300001F400710843217F01F03801084394F860
:100E4000201001F080010843218D01F40051084376
:100E500021680860A069042101EA10402168486007
:100E60002068C16921F40061C1616565012084F8D1
:100E70005100002070BD000030B585B00024009402
:100E800001940294039400681449884224D11448C0
:100E9000816941F008018161816901F008010491D3
:100EA000C16941F48041C161C0690E4D00F48040C8
:100EB00004904FF420400090022001900320039002
:100EC00069462846FFF78CFB4FF48040CDE90004CB
:100ED00069462846FFF784FB05B030BD0038004066
:100EE00000100240000C01402DE9FF4F81B01D466B
:100EF000934604464FF001090E9EFFF767FC074634
:100F000094F851006168012806D0B1F5827F3CD188
:100F1000A168C9BB042838D10298002871D0BBF160
:100F2000000FFBD0002DF9D094F8500001282CD0F0
:100F30004FF0010A84F850A094F85100042802D020
:100F4000052084F851004FF00008C4F85480C4F81C
:100F500038B0E587A58702992163E586A586C4F8A0
:100F60004080C4F8448020680168490603D40168C1
:100F700041F040010160E068B0F5006F606808D0A2
:100F8000F0B3012D49D081E0FFE7022005B0BDE8B4
:100F9000F08F08B1012D39D1206B21680088C8601D
:100FA000206B801C2063E08E401EE0862EE02068CF
:100FB000816889070FD5E18E69B1B9F1010F0AD1B6
:100FC000216B0988C160206B801C2063E08E401E6D
:100FD000E0864FF0000920688168C9070CD0E18FD6
:100FE00051B1C068A16B0880A06B801CA063E08F2A
:100FF000401EE0874FF00109FFF7E8FBC01B01E04E
:101000000BE067E0B04201D3701C50D1E08E0028A5
:10101000CDD1E08F0028CAD13EE0206B2168007856
:101020000873206B401C2063E08E401EE0862DE09C
:101030002068816889070FD5E18E69B1B9F1010F88
:101040000AD1216B09780173206B401C2063E08E6C
:10105000401EE0864FF0000920688168C9070CD067
:10106000E18F51B1C068A16B0870A06B401CA063F8
:10107000E08F401EE0874FF00109FFF7A7FBC01B80
:10108000B04202D3701C01D011E086B1E08E00287E
:10109000CED1E08F0028CBD13A463146204600F031
:1010A00054F950B12020606584F8508012E084F833
:1010B00051A084F85080032068E7A06818B9206820
:1010C000C1688068009084F851A084F85080606DF9
:1010D0000028F1D0012059E710B5401EB0F1807F03
:1010E00001D3012010BD4FF0E02460610F21601793
:1010F00000F092FA0020A06107202061002010BDBE
:1011000070B5040004D094F84100002510B106E049
:10111000012070BD84F84050204600F023F82420C0
:1011200084F841002068C16821F40051C160204664
:1011300000F0DCF92068016921F490410161206828
:10114000416921F02A0141612068C16841F40051E0
:10115000C1606564202084F8410084F84200656322
:10116000002070BD30B585B0002400940194029435
:10117000039400681449884223D11448816941F0DE
:1011800004018161816901F004010491816941F4E4
:101190008041816180690E4D00F4804004904FF4DD
:1011A00000700090022001900320039069462846B9
:1011B000FFF716FA2815CDE9000469462846FFF71F
:1011C0000FFA05B030BD00000038014000100240A9
:1011D000000801402DE9F843044690F84100984684
:1011E00016460D46202802D00220BDE8F88385B1BE
:1011F0007EB100206064212084F84100FFF7E6FA08
:10120000A6848146E684A0682027B0F5805F02D0DE
:1012100003E00120E9E7206910B12E4600250EE029
:1012200000260CE08021204600F0BCF9A8B9C6B128
:1012300016F8010B21684860E08C401EE084E08CC9
:101240004B464FF00002CDF800800028EAD14FF065
:101250004001204600F0A6F940B184F84170032017
:10126000C3E735F8020BC0F30800E3E784F84170E8
:101270000020BAE7FEE7000010B586B0002000901D
:101280000190029003900D48816941F00401816151
:1012900080690B4C00F004000490012204212046D8
:1012A000FFF78EFA042000900120019003200390A4
:1012B00069462046FFF794F906B010BD00100240C1
:1012C00000080140104810B50E4901604FF48271CA
:1012D000416000218160C1604FF400720161C0E98A
:1012E00005121822C0E90721416281620721C1620B
:1012F000FFF768FD002803D0BDE81040FFF725B8D0
:1013000010BD000000380040100000200C4810B54F
:101310000A4901604FF4E1314160002181600C22F3
:10132000C160C0E904128161C161FFF7E9FE0028D4
:1013300003D0BDE81040FFF708B810BD00380140E9
:1013400068000020FEE7FEE77047F8B515460E4638
:101350000B46009204460122022100F011F840B928
:101360003346002280212046009500F009F800282D
:1013700004D0606D40F0200060650320F8BD0000DF
:101380002DE9F8431E46914688460446089DFFF71E
:101390001DFA401B351AFFF719FA07462548006861
:1013A000C0F3CB30684338E0701C37D0FFF70EFA3B
:1013B000C01BA84203D215B1009860B32CE020688E
:1013C000416821F0E00141606068B0F5827F0BD197
:1013D000A068B0F5004F02D0B0F5806F04D120684E
:1013E000016821F040010160A06AB0F5005F09D1F9
:1013F0002068016821F4005101602068016841F40F
:1014000000510160012084F85100002084F8500050
:101410000320BDE8F8830025401E00902068816805
:1014200038EA010004D000214945BDD10020F0E791
:101430000121F9E70C0000207047FFF7CDB930B566
:101440008FB028216846FEF7F9FE14210AA8FEF79E
:10145000F5FE02250120049000951020059000243F
:101460004FF46010CDE9084007956846FFF71AFB76
:1014700008B172B6FEE70F20CDE90A054FF480608F
:10148000CDE90C4002210AA80E94FFF72FFA00289C
:1014900001D072B6FEE70FB030BD704701680C3165
:1014A00051E8002F22F4907241E80023002BF5D17F
:1014B0000168143151E8002F22F0010241E80023B5
:1014C000002BF5D1016B012909D101680C3151E8DC
:1014D000002F22F0100241E80023002BF5D120213B
:1014E00080F84210002101637047000070B5044687
:1014F00000680169E26821F44051114301612169EA
:10150000A0680843616908432168CA6841F20C6316
:101510009A430243CA6020684169A26921F440717C
:10152000114341611E492068884202D1FFF784FAC5
:1015300001E0FFF771FA00EBC00101EB00126068F7
:1015400064218000B2FBF0F3B3FBF1F36FF01806F7
:101550007343B2FBF0F5B2FBF0F605EB83053223E3
:1015600003EB0515B5FBF1F5B6FBF1F605F0F0055B
:1015700005EB0615B2FBF0F6B2FBF0F0B0FBF1F0B4
:101580006FF01802504306EB800003EB0010B0FB35
:10159000F1F0216800F00F002844886070BD000061
:1015A000003801402DE9F843984617460D46044699
:1015B000089E24E0701C22D0FFF708F9A0EB080079
:1015C000B0421AD8CEB12068C168490717D5802D1E
:1015D00015D0402D13D00168C94309070FD4016805
:1015E0000025406800902046FFF758FF08206064FF
:1015F00084F840500120BDE8F8830320FBE7206811
:10160000006835EA000004D00020B842D2D00020A3
:10161000F1E70120F9E7FEE70907090E002804DBDE
:1016200000F1E02080F80014704700F00F0000F196
:10163000E02080F8141D704792B0FFF7D5F8FFF74F
:10164000FEFEFFF719FEFFF73DFEFFF75FFE4FF4CA
:101650007A70FEF7B3FF57A0FEF784FF56A0FEF79F
:1016600081FF60A0FEF77EFF69A0FEF77BFF73A0FD
:10167000FEF778FF50A0FEF775FF7BA0FEF772FF24
:1016800000252C460A20FEF799FF00266846FEF743
:10169000A9FE002853D008A968466D1CFEF758FE25
:1016A0001420B5FBF0F100FB11500028EAD175A021
:1016B000FEF758FF02210E98FEF7E4FE73A0FEF736
:1016C00051FF02210F98FEF7DDFE72A0FEF74AFFE0
:1016D00002211098FEF7D6FE70A0FEF743FF03210B
:1016E0000898FEF7CFFE71A0FEF73CFF0321099892
:1016F000FEF7C8FE6DA0FEF735FF03210A98FEF73E
:10170000C1FE6BA0FEF72EFF01210B98FEF7BAFE7B
:1017100066A0FEF727FF01210C98FEF7B3FE63A039
:10172000FEF720FF01210D98FEF7ACFE63A0FEF747
:1017300019FF01211198FEF7A5FE64A036E00120F3
:10174000FEF73CFF761C032EA0DB6420641CB4FB78
:10175000F0F100FB1140002894D15EA0FEF702FFDB
:101760002846FEF70FFF65A0FEF7FCFE2046FEF7B9
:1017700009FF65A0FEF7F6FE9DF80000FEF7CCFE1F
:1017800064A0FEF7EFFE9DF80100FEF7C5FE61A024
:10179000FEF7E8FE9DF80200FEF7BEFE5DA0FEF734
:1017A000E1FE9DF80300FEF7B7FE5CA0FEF7DAFE4F
:1017B00068E700000D0A00003D3D3D3D3D3D3D3DDB
:1017C0003D3D3D3D3D3D3D3D3D3D3D3D3D3D3D3D49
:1017D0003D3D3D3D3D3D3D3D3D3D3D3D3D3D3D3D39
:1017E0003D0D0A0020202047333536204148525312
:1017F000204D6F64756C65205350492052656365B8
:10180000697665722044656D6F202020200D0A00E6
:101810002020204D43553A2053544D333246313029
:101820003343385436207C2042617564726174659C
:101830003A20313135323030200D0A00202020434B
:101840006F6D6D756E69636174696F6E3A20535088
:10185000493220284D6F646520302C207E324D485F
:101860007A292020200D0A005374617274696E6712
:1018700020646174612072656164696E672E2E2E2A
:101880000D0A0000414E475B523A00002C20503AAE
:10189000000000002C20593A000000005D20646523
:1018A00067207C204143435B000000002C200000A7
:1018B0005D2067207C204759525B00005D206470EA
:1018C00073207C2054656D703A00000020430D0A9F
:1018D000000000005B5761726E696E675D205350B7
:1018E000492072656164206661696C6564212053DA
:1018F0007563636573733A20000000002C20466115
:10190000696C3A20000000002E205261773A205B7B
:10191000307800002C203078000000005D0D0A00B7
:1019200090EA010F48BF81F0004100F14C82421A59
:101930003CBF801A89184FEAD0524FF07F4C1CEA06
:10194000410FA2EBD15318BF9CEA026F00F03B801D
:101950004FF0004C4CEA00204CEA012121FA03FC34
:1019600010EB0C0C1ED202F1FF325FEA1C2040EBA0
:10197000C25038BF70471CF07F0F4FEA400C18BFB1
:10198000BCF17F4F38BF7047C3F12003994008BFB7
:1019900020F00100BCF17F4F38BF7047A0F1C0407C
:1019A00000F0FBB94FEA3C00000A40EBC25028BFF0
:1019B0001CF0FF0F4FEA400CE6D018BFBCF17F4F80
:1019C00038BF7047EAE79CEA026F05D010EA5C0F67
:1019D00008BF00F00040704710B500F098F900BF54
:1019E00064FBBE3E014800F05CBA00BF0000C07F4F
:1019F0004FF47F0C1CEAD0121EBF1CEAD11392EAEE
:101A00000C0F93EA0C0F00F0858090EA010F48BF9D
:101A100042F4807240F4000C41F400002CF07F414D
:101A200020F07F4000B58142A2EB03020FF2081CB8
:101A3000ACEB504EC0F100009EF800E04FEA4E0EB5
:101A400000FB0EFC38BF49004FEA2C1C02F5FA02DD
:101A50000CFB0EF34FEACE1E4FEA112C4FEAC121C8
:101A60000EEB635E42EB22420EFB0CFC4FEA1C5372
:101A700000FB03114FEA112C4FEA01310EFB0CFC65
:101A80004FEADC4C00FB0C11C14228BF09184CEB9B
:101A900003335DF804EB10EB410143EBC250B2F5A8
:101AA0007C0F38BF704729D512F0F00F1CBF00F132
:101AB000C04000F0004070470081828384858687A3
:101AC00088898B8C8D8E8F919293959697999A9CFD
:101AD0009D9FA0A2A3A5A7A8AAACAEB0B2B3B5B76C
:101AE000B9BCBEC0C2C5C7C9CCCED1D4D7D9DCDF42
:101AF000E2E6E9ECF0F3F7FAFE0000004FEA400CF2
:101B00000CF1807CBCF17E4F28BF7047B0F1C04023
:101B100000F043B990EA010F0CEAD11348BF42F438
:101B20008072624538BF634507D213F47F0F16D029
:101B300080EA010000F00040704710B500F0E7F8BF
:101B4000097EFC3E00F005B880EA010000F000408C
:101B5000704780EA010000F0004000F01EB912F466
:101B60007F0F04BF0248704780EA010000F015B9FA
:101B70000000C07FC10DD1F19E0206DB4FEA0023B9
:101B800043F0004323FA02F07047004207D54FEAC2
:101B90004001B1F1FE4F02D24FF00000704710B586
:101BA00000F0B5F849922480002070476FEA2000C9
:101BB0007047000010F0004148BF4042B0FA80F387
:101BC00010FA03F2C3F19D030BD051EAC35101EBAC
:101BD0001220530638BF704700F1010008BF20F003
:101BE00001007047B0FA80F310FA03F2C3F19D03CD
:101BF0000AD0D90501EB1220530638BF704700F117
:101C0000010008BF20F00100704700004FF47F0C76
:101C10001CEAD0121EBF1CEAD11392EA0C0F93EA01
:101C20000C0F00F0478090EA010F48BF42F4807229
:101C30004FF0004C4CEA00204CEA012102EB030279
:101C4000A0FB0113A2F50002002918BF43F0010315
:101C50005B0028BF4FEA330342EB22425FEA132CBA
:101C60004CEBC2502EBFBCEB436FB2F57C0F7047FC
:101C70004FEA036CBCF1004F08BF20F00100B2F541
:101C80007C0F38BF70470BD582F0FF0212F5803F02
:101C9000C8BF704700F1C040D8BF00F00040704797
:101CA00000F5000C5FEA4C0C48BF7047B0F1C04033
:101CB00000F073B890EA010F0CEAD11348BF42F468
:101CC0008072624538BF634504D280EA010000F0AB
:101CD0000040704710B500F01AF800BF8900013EBF
:101CE00000F007B800F009B85FEA410C5FEA1C6C2D
:101CF00008D080EA010000F050B85FEA400C5FEACB
:101D00001C6CF6D14FF00040A0F5800070470EF13A
:101D1000020E2EF0030E5EF8044B244204D44FEA68
:101D20004102B2F17F4F11D84FEA4003B3F17F4F28
:101D30000CD80ED14FEAD07CB2F17F4F0CEB4C0C9B
:101D40000CF1020C08BF4CEBD17C04E04FF0080C06
:101D500001E04FEAD17C0CEB4C0324FA03F404F0CD
:101D60000704B4F1040C06D20EEB840CBDE810405D
:101D70004CF0010C6047DFE80CF0070802024FF05E
:101D80000040A0F5800010BD0846420018BFD2F107
:101D9000807288BF00F0004010BDFF2141EAD050A2
:101DA000C005704780F0004090EA010F7FF5BFAD9D
:101DB00081F0004100F007B890EA010F48BF81F0C0
:101DC00000413FF5B4AD421A04D882F00042A0EBC6
:101DD000020011444FEAD0524FF07F4C1CEA410FF1
:101DE000A2EBD15318BF9CEA026F4AD04FF0004CCF
:101DF0004CEA00204CEA012121FA03FCB0EB0C0C68
:101E00000FD412F0FE0F36D05FEA4C001DD5001241
:101E100040EBC25038BF70471CF03F0F18BF7047EF
:101E20000BE0A2F101025FEA1C2040EBC25038BF78
:101E300070471CF07F0F18BF7047C3F12003994013
:101E400014BF401E20F00100704780084FEA1223A3
:101E500008BF7047B0FA80FCA2EB0C02CCF1280C52
:101E600060FA0CF093EA122F04BF00EBC2507047E7
:101E70004FEAC3707047130A5FEADC1008BF70476F
:101E8000F6E79CEA026F04D010EA5C0F08BF00205E
:101E9000704710B5FFF73BFF40DFF63E81F0004092
:101EA00070470CF00F03092B08BF082000F0518089
:101EB0000A2B0BD0082B18BF704708BF1CF0400F2F
:101EC0000AD04FF000004FF0000170471CF0400FA7
:101ED00018BF4FF0004070471CF0100F08D020F0E2
:101EE000704300F07F4242EAD3014FEA43707047EB
:101EF00000F0604021F07F4242EA000201F07F40A2
:101F000040EA727070474FF0FF0212EAD0521CBFD5
:101F100092F0FF038B42C2BFD14200EBC150704729
:101F2000002A0AD0002B0BD0002900F00040A4BFEB
:101F300040F0FE4040F40000704700F00040704761
:101F400043024FF00B0C18BF4CF0806C7FF44AAD8D
:101F500070471CF4801F11D01CF4E02F03D06FEAEF
:101F6000CC31490070474FF04050EFF3008222F02F
:101F7000704242EA000282F3008870474FF000008E
:101F80007047010202030405060708090A0B0C0D3D
:101F90000E0F1010000000000000000001020304FA
:101FA000060708090000000001020304CC1F000816
:101FB000000000201000000028010008DC1F0008BD
:101FC000100000200007000044010008010000008C
:0C1FD000100000000000000000127A0069
:04000005080000ED02
:00000001FF
