:020000040800F2
:100000002807002029020008D7120008451200081E
:10001000D51200080B050008531500080000000069
:10002000000000000000000000000000DB120008DB
:100030000D05000800000000D9120008DD120008BC
:10004000430200084302000843020008430200087C
:10005000430200084302000843020008430200086C
:10006000430200084302000843020008430200085C
:10007000430200084302000843020008430200084C
:10008000430200084302000843020008430200083C
:10009000430200084302000843020008430200082C
:1000A000430200084302000843020008430200081C
:1000B000430200084302000843020008430200080C
:1000C00043020008430200084302000843020008FC
:1000D00043020008430200084302000843020008EC
:1000E00043020008430200084302000843020008DC
:1000F00043020008430200084302000843020008CC
:1001000043020008430200084302000843020008BB
:1001100043020008430200084302000843020008AB
:10012000430200084302000843020008430200089B
:10013000430200084302000843020008430200088B
:10014000430200084302000843020008430200087B
:10015000430200084302000843020008430200086B
:10016000430200084302000843020008430200085B
:100170004302000843020008430200080000000098
:10018000430200084302000800F002F800F03CF8C7
:100190000AA090E8000C82448344AAF10107DA45E2
:1001A00001D100F031F8AFF2090EBAE80F0013F0F8
:1001B000010F18BFFB1A43F00103184798160000FF
:1001C000B8160000103A24BF78C878C1FAD8520790
:1001D00024BF30C830C144BF04680C6070470000C1
:1001E0000023002400250026103A28BF78C1FBD840
:1001F000520728BF30C148BF0B6070471FB501F0E0
:1002000017FB1FBD10B510BD00F046F91146FFF7F2
:10021000F5FF01F0AFF900F064F903B4FFF7F2FF66
:1002200003BC00F06BF9000009488047094800470B
:10023000FEE7FEE7FEE7FEE7FEE7FEE7FEE7FEE796
:10024000FEE7FEE704480549054A064B70470000F3
:1002500075130008890100082801002028070020E4
:10026000280300202803002053EA020C00F06980D4
:100270002DE9F04B4FF00006002B1FBFB3FA83F5BA
:1002800003FA05F424FA05F65E4012BF1643B2FAEB
:1002900082F502FA05F4C5F120051EBF22FA05FC1D
:1002A00044EA0C04203556EA044C4FEA144418BFC3
:1002B000641C4FF000084FF00009904271EB030CF2
:1002C00039D3002919BFB1FA81F701FA07F6B0FA5C
:1002D00080F700FA07F6C7F120071EBF20FA07FCD7
:1002E00046EA0C062037B6FBF4FCA7EB0507103FE7
:1002F00007F01F0BCBF120060CFA0BFB2CFA06F6CD
:1003000044BFB3460026202FA4BF5E464FF0000B2B
:100310005BEA060C08BF4FF0010B19EB0B09ABFBB6
:10032000027C48EB0608C01B06FB02CC0BFB03CC8F
:1003300071EB0C01C1E70B46024641464846BDE859
:10034000F08B13B54FF000004FF00001AFF30080C9
:10035000BDE81C407047032A40F2308010F0030CC7
:1003600000F0158011F8013BBCF1020F624498BF08
:1003700011F801CB00F8013B38BF11F8013BA2F1A5
:10038000040298BF00F801CB38BF00F8013B11F020
:10039000030300F04F80083AC0F0088051F8043B96
:1003A000083A51F804CBA0E80810F5E7121D5CBF2D
:1003B00051F8043B40F8043BAFF30080D20724BF60
:1003C00011F8013B11F801CB48BF11F8012B24BFF4
:1003D00000F8013B00F801CB48BF00F8012B704743
:1003E0004FF0000200B5134694469646203922BFCE
:1003F000A0E80C50A0E80C50B1F12001BFF4F7AF19
:10040000090728BFA0E80C5048BF0CC05DF804EBFA
:10041000890028BF40F8042B08BF704748BF20F868
:10042000022B11F0804F18BF00F8012B7047704766
:100430007047704710B5203AC0F00B80B1E81850F3
:10044000203AA0E81850B1E81850A0E81850BFF4BE
:10045000F5AF5FEA027C24BFB1E81850A0E818505D
:1004600044BF18C918C0BDE810405FEA827C24BFB1
:1004700051F8043B40F8043B08BF7047D20728BF3F
:1004800031F8023B48BF11F8012B28BF20F8023B8E
:1004900048BF00F8012B7047754600F02BF8AE46B8
:1004A00005006946534620F00700854618B020B580
:1004B000FFF7C8FEBDE820404FF000064FF00007F0
:1004C0004FF000084FF0000B21F00701AC46ACE8FC
:1004D000C009ACE8C009ACE8C009ACE8C0098D4669
:1004E000704710B50446AFF300802046BDE81040C9
:1004F000FFF793BE00487047C40000200149182050
:10050000ABBEFEE7260002007047FEE7704772B6FA
:10051000FEE7000070B5024621480C4621490578E7
:1005200001232DB10023012D06D0022D08D10EE0AC
:10053000AA2A32D10A7003E0552A03D0AA2A2CD065
:1005400003702AE04A7002214170017025E045786D
:100550004A556D1CE9B2417020291ED30370114821
:100560008178022917D1C1781E2914D1C17F5A2957
:1005700011D100210222835C521C1944C9B21D2AE8
:10058000F9DD807F884206D1202206492046FFF708
:10059000E2FE012070BD022070BD002070BD000091
:1005A00000000020A4000020B0F9042000EE102A72
:1005B000F8EEC00A9FED260A60EE800AC1ED000A3F
:1005C000B0F9062000EE902AF8EEE00A60EE800A0C
:1005D000C1ED010AB0F9082000EE902AF8EEE00A19
:1005E00020EE800A81ED020AB0F90A2000EE102AFE
:1005F000F8EEC00A9FED170A60EE800AC1ED030A0B
:10060000B0F90C2000EE902AF8EEE00A60EE800AC5
:10061000C1ED040AB0F90E2000EE902AF8EEE00ACF
:1006200020EE800ADFED0C0A81ED050A02698A617D
:100630004269CA6182690A62B0F91C0000EE100AC0
:10064000B8EEC00A20EE200A81ED090A70470000CA
:100650000000003A90C1793D0AD7233C70B50546A9
:100660002DED028BB0EE408AB5EEC08AF1EE10FAA5
:1006700004D21FA000F040F8B1EE488AB6EE000A9E
:100680000020F2EE048A04E0C0EE280A401CB0EE1E
:10069000600AA842F8DB38EE008ABCEEC80A10EE09
:1006A000104A204600F038F8002D1DDD11A000F0A2
:1006B00023F800EE104A0026B8EE400A38EE400A51
:1006C00010E000BF20EE288ABCEEC80A10EE104AE7
:1006D000204600F021F800EE104A761CB8EE400AE1
:1006E00038EE400AAE42EDDBBDEC028B70BD00007F
:1006F0002D0000002E00000010B5044606E00A237D
:1007000001222146034800F04DFD641C207800289A
:10071000F5D110BD140000203EB50B2100236A4620
:100720008DF80B3078B10A23B0FBF3F403FB14040B
:10073000B0FBF3F0491E303454540028F4D1501863
:10074000FFF7DAFF3EBD01A0FAE70000300000002D
:1007500070B5044600F006F90546601C02D0044856
:100760000078044400F0FEF8401BA042FAD370BDAC
:10077000040000202DE9F84FDFF8BCA1002201257C
:1007800003264FF00F090AF1040BAAF1040E00BF73
:100790000B6805FA02F42340A34270D10F7907F0E9
:1007A0000307012F01D0022F16D187684FEA4208B4
:1007B00006FA08FC27EA0C07D1F80CC00CFA08FC72
:1007C0004CEA070CC0F808C04768A7430C79C4F38B
:1007D000001494403C4344600C79E443A4070AD0DD
:1007E000C4684FEA420C06FA0CF7BC438F6807FA5C
:1007F0000CF72743C7600C7904F00304022C12D1D4
:10080000D40800EB840CDCF820405707FF0E09FAEF
:1008100007F824EA0804D1F8108008FA07F848EA33
:100820000408CCF8208004684FEA420C06FA0CF762
:10083000BC430F7907F0030707FA0CF7274307605B
:100840004C6814F4403F70D03C4C276847F4804714
:100850002760246822F0030704F480440094384C95
:1008600007EB040CDCF8084897074FEA177809FAF9
:1008700008F7BC43334FB84202D1002724E054E0CC
:10088000314FB84201D101271EE0304FB84201D1AB
:10089000022719E02E4FB84201D1032714E02D4F53
:1008A000B84201D104270FE02B4FB84201D10527F0
:1008B0000AE02A4FB84201D1062705E0284FB84286
:1008C00001D1072700E0082707FA08F72743CCF8EB
:1008D0000878DAF800405746D1F804C09C435FEA34
:1008E000CC2C00D51C433C60DBF800405F46D1F8BF
:1008F00004C09C435FEA8C2C00D51C433C60DEF8AE
:1009000000407746D1F804C09C435FEA8C3C00D598
:100910001C433C60084F083F3C68D1F804C09C432E
:100920005FEACC3C00D51C433C60521C102AFFF40B
:100930002FAFBDE8F88F0000083C0140443802406A
:100940000030014000000240000402400008024064
:10095000000C024000100240001402400018024047
:10096000001C02400148806870470000040000201D
:1009700002488168027811448160704704000020B9
:100980000B4810B5016841F400710160016841F441
:1009900080610160016841F480710160032000F012
:1009A00061F80F2000F006F800F024F8002010BDD8
:1009B000003C024070B50D4D04464FF47A71287822
:1009C000B1FBF0F00A490968B1FBF0F000F0FEFA63
:1009D00048B9102C07D200222146501E00F022F800
:1009E00000206C6070BD012070BD0000040000207C
:1009F000100000200A4808B5016841F480410160F8
:100A0000006800F4804000900548001F016841F034
:100A100080510160006800F08050009008BD000027
:100A200044380240F0B40E4B1B680C46C3F302235B
:100A3000C3F10705042D00D90425191D072901D28A
:100A4000002300E0DB1E012606FA05F1491E2140C5
:100A500099409E40761E16403143F0BC00F07ABDAE
:100A60000CED00E0064900F0070208684FF6FF03AE
:100A7000184040EA0220034A104308607047000013
:100A80000CED00E00000FA052DE9F0470E460500E8
:100A900065D0DFF81481D8F80000F7B200F0070045
:100AA000B04207D288F80070D8F8000000F00700C4
:100AB000B04254D128683D4C810712D5400703D578
:100AC000206840F4E05020602878000703D52068B3
:100AD00040F4604020602068A96820F0F0000843DE
:100AE00020602878C0072DD030496868083901286F
:100AF00012D0022813D0032811D0096889070029D1
:100B00002DDA216821F0030101432160FFF72AFF5C
:100B1000814641F2883A0EE009688903EFE70968E7
:100B20008901ECE7FFF71EFFA0EB0901514502D94F
:100B30000320BDE8F0872068696800F00C00B0EB86
:100B4000810FEFD1D8F80010404601F00701B14203
:100B500007D90770006800F00700B04201D00120FB
:100B6000E7E72878400705D52068E96820F4E050D9
:100B7000084320602878000706D52068296920F4FA
:100B8000604040EAC100206000F038F82168084A5F
:100B9000C1F30311515CC84006490860064800686B
:100BA000FFF708FF0020C4E7003C0240083802407D
:100BB0003A180008100000200800002004480549E9
:100BC00000680968044AC1F38221515CC84070473B
:100BD00010000020083802404A180008044805495F
:100BE00000680968044AC1F34231515CC84070474B
:100BF00010000020083802404A180008154810B5B7
:100C0000006810F00C02144813D01449042A0FD0C5
:100C1000082A0ED10F4C241F2268236802F03F02DD
:100C20005B0207D52068C0F38810A0FB010106E035
:100C3000084610BD2168C1F38811A1FB0001002303
:100C4000FFF712FB2168C1F30141491C4900B0FBC9
:100C5000F1F010BD083802400024F40040787D0116
:100C60002DE9F84F04006ED02078DFF84C93C007D0
:100C7000A9F104054AD009F104000168C1F381011A
:100C8000012908D00068C0F3810002280AD1D9F8F0
:100C90000000400206D52868800337D56068002828
:100CA000E1D033E06068B0F5803F10D0B0F5A02F00
:100CB000286810D020F480302860286820F4802034
:100CC00028606068A8B1FFF74DFE06460DE0286871
:100CD00040F48030F4E740F480202860F7E700BF5C
:100CE000FFF740FE801B642873D828688003F7D57F
:100CF0000CE0FFF737FE064605E000BFFFF732FEC7
:100D0000801B6428F0D828688003F7D42078DFF8A7
:100D1000AC8280074FF0000A3ED5A748001D01684D
:100D200011F00C0F08D00068C0F3810002280BD12D
:100D3000D9F80000400207D42868800716D5E0687B
:100D4000012800D112E033E1E068B8B10120C8F811
:100D50000000FFF707FE064605E000BFFFF702FEB2
:100D6000801B0228C0D828688007F7D52868216929
:100D700020F0F80040EAC10028600DE0C8F800A0AB
:100D8000FFF7F0FD064604E0FFF7ECFD801B0228AC
:100D90001FD828688007F7D42078000722D5864F0F
:100DA00087486169703771B101210160FFF7DAFD91
:100DB000064604E0FFF7D6FD801B022809D83868F4
:100DC0008007F7D50EE0C0F800A0FFF7CBFD064680
:100DD00005E082E0FFF7C6FD801B02287DD8386859
:100DE0008007F7D42078400768D5DFF8CCB100271A
:100DF0000BF13C0BDBF80000C0000BD4DBF800105B
:100E000041F08051CBF80010DBF80000012700F022
:100E1000805000906B4E3068C00510D4306840F4AC
:100E200080703060FFF79EFD009005E0FFF79AFDAF
:100E30000099401A022850D83068C005F6D55E4E99
:100E4000A0686C3601280FD00528306810D020F03B
:100E500001003060306820F004003060A068B8B154
:100E6000FFF780FD00900FE0306840F00100F4E7EC
:100E700040F004003060F7E7FFF774FD0099411A75
:100E800041F28830814266D830688007F4D50EE0A0
:100E9000FFF768FD009007E0FFF764FD0099411A35
:100EA00041F28830814256D830688007F4D42FB19F
:100EB000DBF8001021F08051CBF80010A069C8B316
:100EC0003D49091D0968C1F3810102294AD0022860
:100ED000504607D0C8F8600000E03CE0FFF742FD54
:100EE00004463BE04746C8F86000FFF73BFD064676
:100EF00005E000BFFFF736FD801B02282BD82868CD
:100F00008001F7D4D4E907010843A16A2E4A4908B1
:100F100002EB0141626A41EA8211084394F82C1005
:100F200040EA0161C9F8001001203866FFF71AFD98
:100F3000044606E03EE000BFFFF714FD001B022858
:100F400009D828688001F7D534E000BFFFF70AFD13
:100F5000001B022802D90320BDE8F88F2868800111
:100F6000F4D427E00128F7D0D9F80000E26900F4B2
:100F7000800191421CD1226A00F03F01914217D1B9
:100F800047F6C071626A0140B1EB821F10D1A26ABC
:100F90004FF0FF3300F4403103EB5202B1EB024F4C
:100FA00006D194F82C1000F07060B0EB016F01D006
:100FB0000120D1E70020CFE704380240000047427B
:100FC000800E4742007000400000FFFF10B5401E39
:100FD000B0F1807F01D3012010BD4FF0E0246061AB
:100FE0000F21601700F0B6FA0020A06107202061F1
:100FF000002010BD70B5040004D094F84100002515
:1010000010B106E0012070BD84F84050204600F089
:1010100023F8242084F841002068C16821F400519D
:10102000C160204600F0D6F92068016921F49041A2
:1010300001612068416921F02A0141612068C1688D
:1010400041F40051C1606564202084F8410084F8B7
:1010500042006563002070BD70B586B0044614215F
:101060006846FFF7BDF91F4E256800221E4902237E
:1010700007241E48B54214D10D6845F001050D60E6
:10108000096801F001010591174914310D6845F017
:1010900010050D60096801F0100105914FF4C06161
:1010A00015E0134EB5421AD10D6845F001050D60EB
:1010B000096801F0010105910B4910310D6845F4F3
:1010C00000350D60096801F4003105910C21CDE96E
:1010D000001302AD694685E81C00FFF74BFB06B024
:1010E00070BD000000100140303802400000024096
:1010F000004400402DE9F84F044690F842009A461B
:1011000016460D46202802D00220BDE8F88FB5B162
:10111000AEB100206064222184F842102063FFF702
:1011200021FCA6858146E685A0684FF480582027DB
:10113000404501D1206920B12E46002529E001203B
:10114000E3E7002625E04B46002220212046CDF88B
:1011500000A000F0C5F918B184F842700320D4E76C
:1011600026B1A06840451AD038B108E02068406830
:10117000C0F3080025F8020B08E0206978B1206868
:10118000406800F07F0000BF06F8010BE08D401EB4
:10119000E085E08D0028D6D184F84270B5E720685C
:1011A0004068F1E72DE9F843044690F8410098467D
:1011B00016460D46202802D00220BDE8F88385B1EE
:1011C0007EB100206064212084F84100FFF7CAFB53
:1011D000A6848146E684A0682027B0F5805F02D00F
:1011E00003E00120E9E7206910B12E4600250EE05A
:1011F00000260CE08021204600F072F9A8B9C6B1A3
:1012000016F8010B21684860E08C401EE084E08CF9
:101210004B464FF00002CDF800800028EAD14FF095
:101220004001204600F05CF940B184F84170032091
:10123000C3E735F8020BC0F30800E3E784F8417018
:101240000020BAE7FEE70000054808B5016841F054
:1012500001010160006800F00100009008BD00007D
:10126000303802400C4810B50A4901604FF4E131B2
:101270004160002181600C22C160C0E904128161DB
:10128000C161FFF7B7FE002803D0BDE81040FFF7AB
:101290003EB910BD00100140140000200C4810B5EC
:1012A0000A4901604FF4E1314160002181600C2264
:1012B000C160C0E904128161C161FFF79BFE002893
:1012C00003D0BDE81040FFF722B910BD0044004034
:1012D0005C000020FEE7FEE770477047FFF748BB61
:1012E00030B593B030216846FFF77AF814210CA886
:1012F000FFF776F81D480025016841F08051016034
:10130000006800F0805011901948016841F4804154
:1013100001600068022400F48040119001200390D5
:101320001020009406940490CDE907504FF4A87063
:10133000CDE9090407200B906846FFF791FC08B13E
:1013400072B6FEE70CA90F2081E831004FF4A050DF
:101350000F904FF48050109005210CA8FFF794FBDC
:10136000002801D072B6FEE713B030BD403802400D
:10137000007000400248016841F47001016070474C
:1013800088ED00E001680C3151E8002F22F49072E2
:1013900041E80023002BF5D10168143151E8002FFA
:1013A00022F0010241E80023002BF5D1016B012955
:1013B00009D101680C3151E8002F22F0100241E8F8
:1013C0000023002BF5D1202180F842100021016379
:1013D0007047000070B5044600680169E26821F4B6
:1013E0004051114301612169A068E26908436169C4
:1013F000114308432168CA6849F20C639A430243C7
:10140000CA6020684169A26921F4407111434161B9
:1014100031492068884202D03049884202D1FFF722
:10142000DDFB01E0FFF7CAFBE26900231921642517
:101430003226B2F5004F626828D0A0FB0101930F5D
:101440009200FEF711FF0146B0FBF5F06FF01802B5
:10145000504301EB800006EB0010B0FBF5F000F00C
:10146000F002B1FBF5F002EB0012B1FBF5F06FF00A
:101470001803584301EB800006EB0010B0FBF5F0B9
:1014800000F00F0021681044886070BDA0FB0101CE
:1014900092185B41FEF7E8FE0146B0FBF5F0020151
:1014A000B1FBF5F06FF01803584301EB800006EB39
:1014B000C000B0FBF5F000F0F80002EB4002B1FB19
:1014C000F5F0584301EB800006EBC000B0FBF5F0EF
:1014D00000F00700D6E700000010014000140140B2
:1014E0002DE9F843984617460D460446089E24E029
:1014F000701C22D0FFF736FAA0EB0800B0421AD8D1
:10150000CEB12068C168490717D5802D15D0402D70
:1015100013D00168C94309070FD40168002540684A
:1015200000902046FFF72EFF0820606484F84050AA
:101530000120BDE8F8830320FBE72068006835EA56
:10154000000004D00020B842D2D00020F1E70120F2
:10155000F9E7FEE70907090E002804DB00F1E020A7
:1015600080F80014704700F00F0000F1E02080F8D0
:10157000141D704794B0FFF703FAFFF7B1FEFFF7B1
:1015800063FEFFF76FFEFFF789FE4FF47A70FFF7F7
:10159000DFF850A0FFF7B0F84FA0FFF7ADF859A063
:1015A000FFF7AAF862A0FFF7A7F86CA0FFF7A4F86E
:1015B00049A0FFF7A1F874A0FFF79EF80024254684
:1015C000661E3346012212A97648FFF793FD0028D4
:1015D000F7D10AA99DF84800FEF79CFF01281AD010
:1015E0000228EED164206D1CB5FBF0F100FB115018
:1015F0000028E6D16CA0FFF77FF82046FFF78CF8B3
:1016000074A0FFF779F82846FFF786F831A000BFED
:10161000FFF772F8D5E769460AA8641CFEF7C4FF15
:101620001420B4FBF0F100FB11400028C9D16CA0DC
:10163000FFF762F89DED060A0220FFF70FF86AA097
:10164000FFF75AF89DED070A0220FFF707F868A098
:10165000FFF752F89DED080A0220FEF7FFFF66A093
:10166000FFF74AF89DED000A0320FEF7F7FF66A09A
:10167000FFF742F89DED010A0320FEF7EFFF62A09D
:10168000FFF73AF89DED020A0320FEF7E7FF5FA09F
:10169000FFF732F89DED030A0120FEF7DFFF5AA0A5
:1016A000FFF72AF89DED040A0120FEF7D7FF56A0A8
:1016B000FFF722F89DED050A0120FEF7CFFF56A0A7
:1016C000FFF71AF89DED090A0120FEF7C7FF56A0A3
:1016D0009EE700000D0A00003D3D3D3D3D3D3D3D86
:1016E0003D3D3D3D3D3D3D3D3D3D3D3D3D3D3D3D2A
:1016F0003D3D3D3D3D3D3D3D3D3D3D3D3D3D3D3D1A
:101700003D0D0A00202020473335362041485253F2
:10171000204D6F64756C65205541525420526563AD
:1017200065697665722044656D6F2020200D0A0082
:101730002020204D43553A2053544D333246343007
:101740003756455436207C20426175647261746559
:101750003A20313135323030200D0A00202020432C
:101760006F6D6D756E69636174696F6E3A20555364
:101770004152543220283131353230302C20384E0D
:1017800031292020200D0A005374617274696E673C
:1017900020646174612072656164696E672E2E2E0B
:1017A0000D0A00005C0000205B5761726E696E6775
:1017B0005D204672616D652076616C696461746953
:1017C0006F6E206661696C6564212056616C696486
:1017D0003A2000002C20496E76616C69643A200042
:1017E000414E475B523A00002C20503A0000000066
:1017F0002C20593A000000005D20646567207C20A1
:101800004143435B000000002C2000005D20672066
:101810007C204759525B00005D20647073207C205F
:1018200054656D703A00000020430D0A000000006E
:101830004FF04070E1EE100A704700000000000019
:10184000000001020304060708090000000001026D
:1018500003040000741800080000002014000000B9
:10186000C4010008881800081400002014070000B4
:10187000E00100080000000001000000100000006E
:08188000000000000024F40048
:040000050800018965
:00000001FF
